:020000040000fa
:080000000001040000000000f3
:020000040000fa
:0400080004020000ee
:020000040000fa
:04000c0004020000ea
:020000040000fa
:0400100004020000e6
:020000040000fa
:0400140004020000e2
:020000040000fa
:0400180004020000de
:020000040000fa
:04001c0004020000da
:020000040000fa
:0400200004020000d6
:020000040000fa
:0400240004020000d2
:020000040000fa
:0400280004020000ce
:020000040000fa
:04002c0004020000ca
:020000040000fa
:0400300004020000c6
:020000040000fa
:0400340004020000c2
:020000040000fa
:0400380004020000be
:020000040000fa
:04003c0004020000ba
:020000040000fa
:0400400004020000b6
:020000040000fa
:0400440004020000b2
:020000040000fa
:0400480004020000ae
:020000040000fa
:04004c0004020000aa
:020000040000fa
:0400500004020000a6
:020000040000fa
:0400540004020000a2
:020000040000fa
:04005800040200009e
:020000040000fa
:04005c00040200009a
:020000040000fa
:040060000402000096
:020000040000fa
:040064000402000092
:020000040000fa
:04006800040200008e
:020000040000fa
:04006c00040200008a
:020000040000fa
:040070000402000086
:020000040000fa
:040074000402000082
:020000040000fa
:04007800040200007e
:020000040000fa
:04007c00040200007a
:020000040000fa
:040080000402000076
:020000040000fa
:040084000402000072
:020000040000fa
:04008800040200006e
:020000040000fa
:04008c00040200006a
:020000040000fa
:040090000402000066
:020000040000fa
:040094000402000062
:020000040000fa
:04009800040200005e
:020000040000fa
:04009c00040200005a
:020000040000fa
:0400a0000402000056
:020000040000fa
:0400a4000402000052
:020000040000fa
:0400a800040200004e
:020000040000fa
:0400ac00040200004a
:020000040000fa
:0400b0000402000046
:020000040000fa
:0400b4000402000042
:020000040000fa
:0400b800040200003e
:020000040000fa
:0400bc00040200003a
:020000040000fa
:0400c0000402000036
:020000040000fa
:0400c4000402000032
:020000040000fa
:0400c800040200002e
:020000040000fa
:0400cc00040200002a
:020000040000fa
:0400d0000402000026
:020000040000fa
:0400d4000402000022
:020000040000fa
:0400d800040200001e
:020000040000fa
:0400dc00040200001a
:020000040000fa
:0400e0000402000016
:020000040000fa
:0400e4000402000012
:020000040000fa
:0400e800040200000e
:020000040000fa
:0400ec00040200000a
:020000040000fa
:0400f0000402000006
:020000040000fa
:0400f4000402000002
:020000040000fa
:0400f80004020000fe
:020000040000fa
:0400fc0004020000fa
:020000040000fa
:0401000004020000f5
:020000040000fa
:0401040004020000f1
:020000040000fa
:0401080004020000ed
:020000040000fa
:04010c0004020000e9
:020000040000fa
:0401100004020000e5
:020000040000fa
:0401140004020000e1
:020000040000fa
:0401180004020000dd
:020000040000fa
:04011c0004020000d9
:020000040000fa
:0401200004020000d5
:020000040000fa
:0401240004020000d1
:020000040000fa
:0401280004020000cd
:020000040000fa
:04012c0004020000c9
:020000040000fa
:0401300004020000c5
:020000040000fa
:0401340004020000c1
:020000040000fa
:0401380004020000bd
:020000040000fa
:04013c0004020000b9
:020000040000fa
:0401400004020000b5
:020000040000fa
:0401440004020000b1
:020000040000fa
:0401480004020000ad
:020000040000fa
:04014c0004020000a9
:020000040000fa
:0401500004020000a5
:020000040000fa
:0401540004020000a1
:020000040000fa
:04015800040200009d
:020000040000fa
:04015c000402000099
:020000040000fa
:040160000402000095
:020000040000fa
:040164000402000091
:020000040000fa
:04016800040200008d
:020000040000fa
:04016c000402000089
:020000040000fa
:040170000402000085
:020000040000fa
:040174000402000081
:020000040000fa
:04017800040200007d
:020000040000fa
:04017c000402000079
:020000040000fa
:040180000402000075
:020000040000fa
:040184000402000071
:020000040000fa
:04018800040200006d
:020000040000fa
:04018c000402000069
:020000040000fa
:040190000402000065
:020000040000fa
:040194000402000061
:020000040000fa
:04019800040200005d
:020000040000fa
:04019c000402000059
:020000040000fa
:0401a0000402000055
:020000040000fa
:0401a4000402000051
:020000040000fa
:0401a800040200004d
:020000040000fa
:0401ac000402000049
:020000040000fa
:0401b0000402000045
:020000040000fa
:0401b4000402000041
:020000040000fa
:0401b800040200003d
:020000040000fa
:0401bc000402000039
:020000040000fa
:0401c0000402000035
:020000040000fa
:0401c4000402000031
:020000040000fa
:0401c800040200002d
:020000040000fa
:0401cc000402000029
:020000040000fa
:0401d0000402000025
:020000040000fa
:0401d4000402000021
:020000040000fa
:0401d800040200001d
:020000040000fa
:0401dc000402000019
:020000040000fa
:0401e0000402000015
:020000040000fa
:0401e4000402000011
:020000040000fa
:0401e800040200000d
:020000040000fa
:0401ec000402000009
:020000040000fa
:0401f0000402000005
:020000040000fa
:0401f4000402000001
:020000040000fa
:0401f80004020000fd
:020000040000fa
:0401fc0004020000f9
:020000040000fa
:100200002f8120000eff27000e0188000000000053
:10021000000020000000e000020032000001200089
:100220002002880014000700d40307000000e0004b
:1002300003003a00201621000100200002003700d0
:100240000000200001002000810f7000010032003a
:1002500014000700000020000000e000020032004f
:1002600000000200000000007e11020000000000fb
:100270000040da000000fe004440a90020002000f9
:100280000000e00003003200100020009001880010
:100290004440a800000006008a1f78008b1f7800e9
:1002a00000000600a1028800800478000000eb0036
:1002b0001f003700e284440054a0b4009905ba003e
:1002c000e284440054a0b4009906ba00e2844400d9
:1002d00054a0b4000006eb00476fde00fd07b2003b
:1002e000ae018800636ce10003003a00eaff0700fa
:1002f0000000eb000e003700606ce10008003a00df
:10030000004deb000a05e800020039003420ec0043
:100310000af0a0008b05e900f9ff3e000400370059
:100320006168e100010032000086eb000b0007006d
:1003300019c7ba001905ba000e04e00003003a001c
:100340000a00e000dbff3a0000000600fe07b200f2
:10035000ae0288008a047800f5ff37000cd0a300b5
:10036000e20f4d001c00390089027800354dba00bb
:100370000a05e800020039003420ec000af0a00071
:100380008b05e9000f003200254dba000a05e80090
:10039000020039003420ec000af0a0008b05e900cf
:1003a000080032000c00e0000600320015cdba0053
:1003b0000a05e800020039003420ec000af0a00031
:1003c0008b05e9008984e80054a0b4000b00e0002c
:1003d000e2ff3a00000006009902ba00055d7800cd
:1003e0008b05e900f7ff3200c82ade00055d7800c2
:1003f0008b05e900f3ff32000c00e000f1ff320052
:1004000019ddba00eeff37000040da000000fe0000
:100410000000fa0000088000000178000210a0002f
:10042000600420007105200003102000804978003e
:100430008149780082497800cc21ef00610e80006c
:1004400000002800008060000000e000070032008b
:10045000610e800000802000008060000000e0004d
:1004600001003a0004000700cde1a900cd61a90018
:100470000080fa00000006000200fa00881f7800e1
:10048000100280004500de0067406000004f7800e9
:1004900011028000000e2000010070001002880090
:1004a0000000000058052000383b8800a80a200002
:1004b000383b8800cd61a8009e40780067c060008e
:1004c0000080fb00670060004500dd001202800034
:1004d000f1f12f008100610001007000100288001e
:1004e000000000004f0478000080fa0000000600c1
:1004f0000a00fa0040079800000f800020079800cb
:10050000be009000100f80000100700030079800be
:10051000ae4090004e009000114098009e40900028
:100520004e00900021409800be4090004e00900088
:10053000014878009e4078004e00900031409800bd
:100540000080fa00000006000a00fa004007980048
:10055000400f800020079800be009000500f8000e0
:100560000100700030079800ae4090004e009000ef
:10057000114098009e4090004e009000214098004d
:10058000be4090004e009000014878009e407800e8
:100590004e009000314098000080fa0000000600f4
:1005a0000a00fa0040079800200f8000000f780032
:1005b000300f800010079800ce4090004e00900051
:1005c00031409800de4090004e009000214098009d
:1005d000ee4090004e009000114098000080fa001c
:1005e000000006000200fa00000f7800210f8000d2
:1005f0001e00780001087800310f80001e0078008e
:1006000011009800410f80001e0078002100980022
:10061000510f80001e007800310098000080fa0021
:10062000000006000a00fa0040079800e00e800073
:10063000000f7800f00e800010079800ce40900068
:100640004e00900031409800de4090004e00900037
:1006500021409800ee4090004e009000114098001c
:100660000080fa00000006000200fa00000f780087
:10067000e10e80001e00780001087800f10e800075
:100680001e00780011009800010f80001e00780005
:1006900021009800110f80001e00780031009800a2
:1006a0000080fa00000006000600fa00100798001b
:1006b00021079800700e80004f00de000040780097
:1006c0000080fb00000f78001e0078000000e000b2
:1006d000090032002e0090000000e000020032000d
:1006e000cfe1a90004003700c00e80006400600064
:1006f0000000e000fcff3a001e009000004078007f
:100700006f4060000080fb006f0060004800dd006b
:10071000720e8000f10f2f00810061000100700057
:10072000700e88001e0078000000e0000400320017
:100730002e0090000000e00001003200cfe1a80090
:100740000080fa00000006000600fa00204798002a
:1007500021079800700e80004f00de0000407800f6
:100760000080fb00000f78001e0078000000e00011
:10077000090032002e0090000000e000020032006c
:10078000cfe1a90004003700c00e800064006000c3
:100790000000e000fcff3a002e419000e11c200028
:1007a000824878001e0078000000e000040032005b
:1007b0002e0090000000e00001003200cfe1a80010
:1007c0000080fa00000006000600fa0010079800fa
:1007d00021079800700e80004f00de000040780076
:1007e0000080fb00000f78001e0078000000e00091
:1007f000090032002e0090000000e00002003200ec
:10080000cfe1a90004003700c00e80006400600042
:100810000000e000fcff3a001e009000004078005d
:10082000614060000080fb00610060004e00dd0060
:10083000720e8000f1ff2b0081006100010070004a
:10084000700e88001e0078000000e00004003200f6
:100850002e0090000000e00001003200cfe1a8006f
:100860000080fa00000006000a00fa004007980025
:100870004e00900020409000f24f500012003e00c9
:100880004e009000204090000004e0000e00320076
:100890004e0090009040900010c3b30080cf5000f5
:1008a00009003e004e009000104090000004e0005f
:1008b000050032004e009000b040900090c9b30097
:1008c00080cf5000020036000000eb002b00370004
:1008d0004e0090002040900060479800500f80002c
:1008e0000040780070479800600e80004b00de00ea
:1008f000614060000080fb00000f78001e0078005f
:100900000000e00001003a00dbfe0700700e8000ee
:100910004f00de00004078000080fb0010079800c8
:100920001e0090000000e00001003200cfe1a900ad
:100930004e00900010409000404798004e009000fc
:1009400010407800504798002e009000400f88001b
:100950003e009000500f88001e0090000000e00054
:1009600001003200cfe1a8001e0078000000e00086
:1009700001003a00cd61a900100020000080fa00bb
:10098000000006000a00fa00400798004e009000a0
:10099000a040900090c5b30080cf50000a003e00f8
:1009a0004e0090009040900090c5b30080cf500062
:1009b00005003e004e009000b040900040c2b300e1
:1009c00080cf5000020036000000eb002b00370003
:1009d000200f800000407800404798004e009000b3
:1009e0001040900050479800600e80004b00de00e1
:1009f000614060000080fb00000f78001e0078005e
:100a00000000e00001003a009bfe0700700e80002d
:100a10004f00de00004078000080fb0010079800c7
:100a20001e0090000000e00001003200cfe1a900ac
:100a30004e00900020409000604798004e009000cb
:100a400030409000704798003e009000300f8800c2
:100a50002e009000200f88001e0090000000e00093
:100a600001003200cfe1a8001e0078000000e00085
:100a700001003a00cd61a900100020000080fa00ba
:100a8000000006000600fa00200798002e009000e3
:100a9000f040900090c5b30080cf50001f003e0092
:100aa0002e009000e040900090c5b30080cf500031
:100ab0001a003e002e00900050409000e64f50007b
:100ac00016003e002e009000c040900040c2b300cf
:100ad00080cf500011003e002e009000304090006a
:100ae000f24f50000d003e002e009000304090006c
:100af0000004e000090032002e009000a0409000a9
:100b000010c3b30080cf500004003e002e009000c0
:100b1000204090000004e00002003a000000eb00da
:100b200027003700600e80004b00de00614060004f
:100b30000080fb00000f78001e0078000000e0003d
:100b400001003a004cfe0700700e80004f00de00ee
:100b5000004078000080fb00100798001e00900005
:100b60000000e00001003200cfe1a9002e0090005b
:100b700010007800200f88002e00900010009000d8
:100b8000300f88002e00900020009000400f880059
:100b90002e00900030009000300f88001e00900062
:100ba0000000e00001003200cfe1a8001e00780044
:100bb0000000e00001003a00cd61a9001000200013
:100bc0000080fa00000006001000fa00600798009c
:100bd000710798000000eb00100798006e0090006d
:100be00020409000f24f500012003e006e00900036
:100bf000204090000004e0000e0032006e009000e3
:100c00009040900010c3b30080cf500009003e0018
:100c10006e009000104090000004e00005003200db
:100c20006e009000b040900090c9b30080cf50009b
:100c3000020036000000eb00530037006e00900009
:100c400010409000104f98006e0090001040780007
:100c5000004f98006e00900030409000304f980098
:100c60006e00900020409000204f98007e00900081
:100c70000000e00009003200100280004500de00a4
:100c800067406000004f780011028000000e2000d5
:100c9000010070001002880000000000600e80005b
:100ca0004b00de00614060000080fb0020079800e0
:100cb0002e0090000000e00001003a00eefd070069
:100cc000600e80004f00de00004078000080fb00d6
:100cd000300798003e0090000000e000060032005f
:100ce000700e80004f00de00004078000080fb00a6
:100cf00010079800cde1a9004e009000000f880079
:100d00005e009000100f88003e0090000000e000a0
:100d10000a003200cde1a8001e0090000000e000b3
:100d200001003200cfe1a8002e0090000000e0009a
:100d300006003200d0fd0700040037002e009000ae
:100d40000000e00001003a00cd61a9007e009000a3
:100d50000000e0000b0032009e40780067c0600099
:100d60000080fb00670060004500dd00120280008b
:100d7000f1f12f0081006100010070001002880075
:100d800000000000100020000080fa0000000600b3
:100d90001000fa0060079800710798000000eb004f
:100da000100798006e009000a040900090c5b3001e
:100db00080cf50000a003e006e00900090409000ee
:100dc00090c5b30080cf500005003e006e0090003b
:100dd000b040900040c2b30080cf50000200360007
:100de0000000eb0053003700e00e80000040780068
:100df000204f98006e00900010409000304f9800f7
:100e00007e0090000000e000090032001002800027
:100e10004500de0067406000004f7800110280004e
:100e2000000e200001007000100288000000000089
:100e3000600e80004b00de00614060000080fb001f
:100e4000200798002e0090000000e00001003a000a
:100e500089fd0700600e80004f00de000040780032
:100e60000080fb00300798003e0090000000e0008a
:100e700006003200700e80004f00de000040780057
:100e80000080fb0010079800cde1a9006e009000e3
:100e900020409000004f98006e009000304090007d
:100ea000104f98004e009000f00e88005e009000f9
:100eb000e00e88003e0090000000e0000a003200d2
:100ec000cde1a8001e0090000000e000010032000b
:100ed000cfe1a8002e0090000000e00006003200e4
:100ee00065fd0700040037002e0090000000e000c0
:100ef00001003a00cd61a9007e0090000000e000f2
:100f00000b0032009e40780067c060000080fb004c
:100f1000670060004500dd0012028000f1f12f0043
:100f200081006100010070001002880000000000d4
:100f3000100020000080fa00000006000c00fa00fb
:100f400040079800510798000000eb00000f780060
:100f50004e009000f040900090c5b30080cf50004c
:100f600024003e004e009000e040900090c5b30089
:100f700080cf50001f003e004e0090005040900077
:100f8000e64f50001b003e004e009000c040900015
:100f900040c2b30080cf500016003e004e009000cb
:100fa00030409000f24f500012003e004e00900082
:100fb000304090000004e0000e0032004e0090002f
:100fc000a040900010c3b30080cf500009003e0045
:100fd0004e009000204090000004e0000500320028
:100fe0004e0090009040780090c9b30080cf500030
:100ff000020036000000eb004f0037005e0090005a
:101000000000e00009003200100280004500de0010
:10101000674060002047980011028000000e200009
:10102000010070001002880000000000600e8000c7
:101030004b00de00614060000080fb00200798004c
:101040002e0090000000e00001003a000afd0700b9
:10105000600e80004f00de00004078000080fb0042
:10106000300798003e0090000000e00006003200cb
:10107000700e80004f00de00004078000080fb0012
:10108000000f7800cde1a9004e009000100078001c
:10109000e00e88004e00900010009000f00e8800d6
:1010a0004e00900020009000200f88004e0090001d
:1010b00030009000300f88003e0090000000e000fb
:1010c0000a003200cde1a8001e0078000000e00018
:1010d00001003200cfe1a8002e0090000000e000e7
:1010e00006003200e4fc0700040037002e009000e8
:1010f0000000e00001003a00cd61a9005e00900010
:101100000000e0000b0032002e40900067406000bd
:101110000080fb00670060004500dd0012028000d7
:10112000f1f12f00810061000100700010028800c1
:1011300000000000100020000080fa0000000600ff
:101140000200fa00000f78001e00780000407800ce
:10115000614060000080fb00610060004a00dd002b
:10116000620e8000f1bf2f0081006100010070005d
:10117000600e88000080fa000000060000000500f4
:020000040000fa
:101180000000fa009aa4a9009a84a8000080fa003e
:10119000000006000400fa00000f78001107980014
:1011a0009e009000d12488009e007800d124880001
:1011b0000080fa00000006000000fa0000000000b5
:1011c000d0248000610060000000e000fcff3a00d5
:1011d000d0248000620060000000e000f8ff3a00c8
:1011e000d0248000640060000000e000f4ff3a00ba
:1011f000d0248000680060000000e000f0ff3a00aa
:10120000d0248000700060000000e000ecff3a0095
:10121000f124800000002400008060000000e00055
:10122000e7ff3a000080fa00000006000000fa0024
:101230009a04a8000080fa00000006000000fa00ee
:101240009be4a9009a00a9009a20a9008a00a9009d
:101250008a20a9000080fa00000006000200fa00bf
:10126000000f78008a00a9008a20a9001e007800db
:1012700000407800674060006740600067406000a1
:101280000080fb00670060008205800081ff2f0066
:1012900081006100010070008005880000072000c7
:1012a0001e0060004400de000040780067406000df
:1012b0000080fb00670060004400dd0082058000c4
:1012c000f1f82f00810061000100700080058800a6
:1012d0009e007800688060004300de0000407800d7
:1012e000614060000080fb0061006000d20480006b
:1012f000e1ff2f008100610001007000d004880030
:10130000000820001e0060004700de00004078005a
:10131000614060000080fb00610060000000400050
:10132000d2048000d1ff2f00810061000100700015
:10133000d00488000080fa00000006000000fa00d7
:10134000f02480000000d100614060000080fa00bd
:10135000000006000600fa001007980041479800b8
:10136000240037001e009000104078000080fb0031
:10137000000f78001e0090000000e80010079800a1
:1013800000000000d0248000680060000000e00041
:10139000fcff3a0090048000700060000000e00054
:1013a000020032000080eb001d003700d0248000d6
:1013b0006f006000e80f500004003200d02480006d
:1013c0006f006000eb0f50000a003a004e409000a2
:1013d0000004e000070032009aa4a9009a84a80043
:1013e00000000000d0248000700060000000e000d9
:1013f000fcff3a004e4090000080fb000000ea0035
:101400004f00de0000407800ce4090008140e900af
:10141000414798000004e000d2ff3a000000eb00d2
:101420000080fa00000006000200fa00004f780079
:101430001e80fb00b0248800f124800000082000fa
:10144000008060000000e0000200320000c0eb00fd
:10145000010037000040eb000080fa0000000600a9
:101460000800fa001007980021079800320798003a
:101470000000eb00000f7800260037009a64a800f7
:10148000080037009e0078003e009000808f5000da
:10149000020031001e0fe800020037001e0090001d
:1014a00020003700a5ff07000004e000f5ff320030
:1014b0000000eb00000f7800a0248000804078003e
:1014c0002e009000014878002e0090000000e800f7
:1014d000200798001e0090000000e9001007980007
:1014e0001e0090000000e00003003a009aa4a8004b
:1014f0009a84a800030037009aa4a9009a84a8003f
:1015000000000000d0248000700060000000e000b7
:10151000fcff3a001e0090000000e000d7ff3a00f8
:101520000000eb000080fa00000006000200fa0054
:10153000000f78000700370000000000f024800052
:10154000610060000000e000fcff3a001aff0700a5
:101550001e0fe8001e007800104078000004e00034
:10156000f5ff3a000040eb000080fa0000000600a2
:101570000000fa009a44a8000080fa00000006006b
:101580000000fa009a64a80000000000d024800047
:10159000680060000000e000fcff3a009ec4a90063
:1015a000a0248000004078000080fa0000000600bf
:1015b0000000fa000000000050048000620060009b
:1015c0000000e000fcff32008a20a9000080fa0041
:1015d000000006000000fa009aa4a8009a84a8005f
:1015e0000080fa00000006000000fa009a24a8001b
:1015f0000080fa00000006000000fa00aaa4a9007a
:10160000aa84a8000080fa00000006000400fa0086
:10161000000f7800110798009e0090005125880067
:101620009e007800512588000080fa000000060026
:101630000000fa00000000005025800061006000fa
:101640000000e000fcff3a005025800062006000ce
:101650000000e000f8ff3a005025800064006000c0
:101660000000e000f4ff3a005025800068006000b0
:101670000000e000f0ff3a0050258000700060009c
:101680000000e000ecff3a0071258000000024001b
:10169000008060000000e000e7ff3a000080fa00f0
:1016a000000006000000fa00aa04a8000080fa006a
:1016b000000006000000fa00abe4a9009e20a9008b
:1016c0009e40a9008e20a9008e40a9000080fa004b
:1016d000000006000200fa00000f78008e20a9002a
:1016e0008e40a9001e00780000407800674060002e
:1016f00067406000674060000080fb00670060009a
:101700004400dd0002068000f1f82f008100610036
:101710000100700000068800000720001e00600025
:101720004400de0000407800674060000080fb005d
:10173000670060004800dd0002068000f18f2f0086
:101740008100610001007000000688009e007800a2
:10175000688060004300de00004078006140600067
:101760000080fb006100600000004000f204800087
:10177000d1ff2f008100610001007000f00488009b
:10178000000820001e0060004700de0000407800d6
:10179000614060000080fb00610060004200dd00ed
:1017a000f2048000b1ff2f00810061000100700091
:1017b000f00488000080fa00000006000000fa0033
:1017c000702580000000d100614060000080fa00b8
:1017d000000006000600fa00100798004147980034
:1017e000250037001e009000104078000080fb00ac
:1017f000000f78001e0090000000e800100798001d
:101800000000000050258000680060000000e0003b
:10181000fcff3a009104800000022000008060007c
:101820000000e000020032000080eb001d003700e5
:10183000502580006f006000e80f50000400320067
:10184000502580006f006000eb0f50000a003a0046
:101850004e4090000004e00007003200aaa4a90056
:10186000aa84a800000000005025800070006000dd
:101870000000e000fcff3a004e4090000080fb00ba
:101880000000ea004f00de0000407800ce409000eb
:101890008140e900414798000004e000d1ff3a0090
:1018a0000000eb000080fa00000006000200fa00d1
:1018b000004f78001e80fb003025880071258000d5
:1018c00000082000008060000000e00002003200fc
:1018d00000c0eb00010037000040eb000080fa0080
:1018e000000006000800fa00100798002107980081
:1018f000320798000000eb00000f78002600370048
:10190000aa64a800080037009e0078003e009000fe
:10191000808f5000020031001e0fe80002003700e7
:101920001e00900020003700a4ff07000004e00024
:10193000f5ff32000000eb00000f7800202580004a
:10194000804078002e009000014878002e00900022
:101950000000e800200798001e0090000000e90049
:10196000100798001e0090000000e00003003a00fd
:10197000aaa4a800aa84a80003003700aaa4a9006a
:10198000aa84a800000000005025800070006000bc
:101990000000e000fcff3a001e0090000000e000a4
:1019a000d7ff3a000000eb000080fa0000000600bc
:1019b0000200fa00000f7800070037000000000066
:1019c00070258000610060000000e000fcff3a002c
:1019d00017ff07001e0fe8001e0078001040780077
:1019e0000004e000f5ff3a000040eb000080fa0040
:1019f000000006000000fa00aa44a8000080fa00d7
:101a0000000006000000fa00aa64a8000000000020
:101a100050258000680060000000e000fcff3a00f4
:101a2000aec4a90020258000004078000080fa00a4
:101a3000000006000000fa000000000070048000b2
:101a4000640060000000e000fcff32008e40a9004e
:101a50000080fa00000006000000fa00aaa4a80016
:101a6000aa84a8000080fa00000006000000fa0026
:101a7000aa24a8000080fa00000006000000fa0076
:101a8000baa4a900ba84a8000080fa0000000600e9
:101a90000400fa00000f7800110798009e009000e3
:101aa000d12588009e007800d12588000080fa00aa
:101ab000000006000000fa0000000000d0258000b1
:101ac000610060000000e000fcff3a00d0258000cb
:101ad000620060000000e000f8ff3a00d0258000be
:101ae000640060000000e000f4ff3a00d0258000b0
:101af000680060000000e000f0ff3a00d0258000a0
:101b0000700060000000e000ecff3a00f12580006a
:101b100000002400008060000000e000e7ff3a00c1
:101b20000080fa00000006000000fa00ba04a800d5
:101b30000080fa00000006000000fa00bbe4a900e3
:101b4000a0c0a900a0e0a90090c0a90090e0a90051
:101b50000080fa00000006000200fa00000f780082
:101b600090c0a90090e0a9001e0078000040780015
:101b70006740600067406000674060000080fb00d5
:101b8000670060004800dd0052068000f18f2f00e2
:101b900081006100010070005006880000072000ed
:101ba0001e0060004400de000040780067406000d6
:101bb0000080fb00670060004c00dd0052068000e2
:101bc000f1ff2800810061000100700050068800cc
:101bd0009e007800688060004300de0000407800ce
:101be000614060000080fb00610060004600dd0095
:101bf00002058000f1fb2f008100610001007000f0
:101c000000058800000820001e0060004700de007c
:101c100000407800614060000080fb0061006000cf
:101c20004700dd0002058000f1f72f008100610010
:101c300001007000000588000080fa000000060026
:101c40000000fa00f02580000000d1006140600033
:101c50000080fa00000006000600fa001007980055
:101c600041479800250037001e0090001040780082
:101c70000080fb00000f78001e0090000000e800cc
:101c80001007980000000000d02580006800600068
:101c90000000e000fcff3a00a104800000002200e8
:101ca000008060000000e000020032000080eb00d5
:101cb0001d003700d02580006f006000e80f500045
:101cc00004003200d02580006f006000eb0f500050
:101cd0000a003a004e4090000004e0000700320085
:101ce000baa4a900ba84a80000000000d025800092
:101cf000700060000000e000fcff3a004e409000e1
:101d00000080fb000000ea004f00de000040780089
:101d1000ce4090008140e900414798000004e00077
:101d2000d1ff3a000000eb000080fa00000006003e
:101d30000200fa00004f78001e80fb00b0258800ea
:101d4000f125800000082000008060000000e00015
:101d50000200320000c0eb00010037000040eb0041
:101d60000080fa00000006000800fa001007980042
:101d700021079800320798000000eb00000f780060
:101d800026003700ba64a800080037009e007800db
:101d90003e009000808f5000020031001e0fe800ce
:101da000020037001e00900020003700a4ff07004b
:101db0000004e000f5ff32000000eb00000f7800a7
:101dc000a0258000804078002e0090000148780017
:101dd0002e0090000000e800200798001e009000f0
:101de0000000e900100798001e0090000000e000cd
:101df00003003a00baa4a800ba84a8000300370080
:101e0000baa4a900ba84a80000000000d025800070
:101e1000700060000000e000fcff3a001e0090002f
:101e20000000e000d7ff3a000000eb000080fa005d
:101e3000000006000200fa00000f780007003700db
:101e400000000000f0258000610060000000e0005c
:101e5000fcff3a0017ff07001e0fe8001e00780085
:101e6000104078000004e000f5ff3a000040eb006d
:101e70000080fa00000006000000fa00ba44a80042
:101e80000080fa00000006000000fa00ba64a80012
:101e900000000000d0258000680060000000e00025
:101ea000fcff3a00bec4a900a025800000407800d5
:101eb0000080fa00000006000000fa0000000000a8
:101ec0008104800000082000008060000000e00025
:101ed000fbff320090e0a9000080fa00000006003d
:101ee0000000fa00baa4a800ba84a8000080fa0092
:101ef000000006000000fa00ba24a8000080fa00e2
:101f0000000006000400fa00004f78001147980016
:101f1000224798001e80fb000000e0000a003a0003
:101f20002e4090008080fb001e4090000080fb004f
:101f30000008dd0080007800d033800001007000d0
:101f4000d0338800000000000080fa000000060086
:101f50000200fa00004f7800114798000080fa0054
:101f6000000006000400fa00004f780011479800b6
:101f7000224798000080fa00000006000600fa00e0
:101f80002047980031479800424798000040eb00f6
:101f9000004f78000040eb00004f78001b00370036
:101fa0001e80fb0080004000208020000080400058
:101fb00010007800004078003e419000804078009a
:101fc0002e409000e7ff07003e409000e14f500098
:101fd0000d003a004e409000e14f50000a003a00d8
:101fe0001e80fb0080004000208020000080400018
:101ff00010007800004078000041eb00804078003d
:102000002e409000bfff07001e4fe8009e80fb009f
:1020100000408000808f5000e1ff35000080fa0012
:10202000000006000200fa00004f780011479800f7
:102030000041eb009e4090001e407800cfff07005b
:102040000080fa00000006000400fa002047980013
:10205000314798000040eb00004f78001100370036
:102060003e4090008080fb001e80fb000088de0068
:1020700000407800e14060001e80fb00000140004d
:10208000208020000000410010007800004078000f
:1020900001417800804078002e40900099ff0700b1
:1020a0001e4fe8001e407800e74f5000ecff36005e
:1020b0000080fa00000006000600fa000040eb0075
:1020c000004f78000040eb001047980017003700e1
:1020d0001e4090000080fb00800040002080200017
:1020e00000804000100078000040780080407800b8
:1020f0002e40900096ff07000080fb00200798000c
:102100001e4090000080fb00ae0090000008dd0043
:10211000804078001e40780000c07000004f7800ba
:102120001e4090000040e800104798001e409000bc
:10213000e74f5000e6ff36001e4078000080fa00ae
:10214000000006000400fa00010880001107980052
:1021500011088000000c20000100700010088800a9
:1021600002a1a8000000eb00000f7800010037007a
:102170001e0fe800702520009e007800808f500020
:10218000fbff360001088000f08f2f000080600008
:102190000080a000000888000001a8000e80e80070
:1021a0000000e800104078000081fb00800720005c
:1021b000a10920001310200080497800814978008f
:1021c000824978000e80e800104078000081fb0012
:1021d0006004200071052000031020008049780071
:1021e00081497800824978000000000001088000e1
:1021f00000022000008060000000e000fbff3200d1
:1022000000088000000880000000eb000080fa0059
:10221000000006000400fa00204798000108800032
:10222000010f78002e409000674060000080fb00a6
:10223000670060004800dd0002088000f18f2f0079
:102240008100610001007000000888000001a80002
:102250000e00e800104078000081fb00800720009d
:10226000a1092000131020008049780081497800de
:10227000824978000e007800104078000081fb0051
:1022800060042000710520000310200080497800c0
:102290008149780082497800000000000108800030
:1022a00000022000008060000000e000fbff320020
:1022b00000088000000880000000eb000080fa00a9
:0422c0000000060014
:020000040000fa
:1022c4000208000010000000820000000200030069
:1022d40000040000050006000007000008000900d3
:1022e400000000000008000002000000820000005e
:0822f4000800000000000000da
:020000040000fa
:1022fc000000fa008e26ef000000eb000080fa00d0
:04230c0000000600c7
:020000040000fa
:020000040005f5
:045e0000ffff0000a0
:020000040000fa
:020000040005f5
:045e2000ff1f000060
:020000040000fa
:020000040005f5
:045e300089ffff00e7
:020000040000fa
:020000040005f5
:045e38004bffff001d
:020000040000fa
:020000040005f5
:045e40009fffff00c1
:020000040000fa
:020000040005f5
:045e4800ffffff0059
:020000040000fa
:020000040005f5
:045e5000dfffff0071
:020000040000fa
:020000040005f5
:045e5800ffffff0049
:00000001FF
