:020000040000fa
:080000000001040000000000f3
:020000040000fa
:0400080004020000ee
:020000040000fa
:04000c0004020000ea
:020000040000fa
:0400100004020000e6
:020000040000fa
:0400140004020000e2
:020000040000fa
:0400180004020000de
:020000040000fa
:04001c0004020000da
:020000040000fa
:0400200004020000d6
:020000040000fa
:0400240004020000d2
:020000040000fa
:0400280004020000ce
:020000040000fa
:04002c0004020000ca
:020000040000fa
:0400300004020000c6
:020000040000fa
:0400340004020000c2
:020000040000fa
:0400380004020000be
:020000040000fa
:04003c0004020000ba
:020000040000fa
:0400400004020000b6
:020000040000fa
:0400440004020000b2
:020000040000fa
:0400480004020000ae
:020000040000fa
:04004c0004020000aa
:020000040000fa
:0400500004020000a6
:020000040000fa
:0400540004020000a2
:020000040000fa
:04005800040200009e
:020000040000fa
:04005c00040200009a
:020000040000fa
:040060000402000096
:020000040000fa
:040064000402000092
:020000040000fa
:04006800040200008e
:020000040000fa
:04006c00040200008a
:020000040000fa
:040070000402000086
:020000040000fa
:040074000402000082
:020000040000fa
:04007800040200007e
:020000040000fa
:04007c00040200007a
:020000040000fa
:040080000402000076
:020000040000fa
:040084000402000072
:020000040000fa
:04008800040200006e
:020000040000fa
:04008c00040200006a
:020000040000fa
:040090000402000066
:020000040000fa
:040094000402000062
:020000040000fa
:04009800040200005e
:020000040000fa
:04009c00040200005a
:020000040000fa
:0400a0000402000056
:020000040000fa
:0400a4000402000052
:020000040000fa
:0400a800040200004e
:020000040000fa
:0400ac00040200004a
:020000040000fa
:0400b0000402000046
:020000040000fa
:0400b4000402000042
:020000040000fa
:0400b800040200003e
:020000040000fa
:0400bc00040200003a
:020000040000fa
:0400c0000402000036
:020000040000fa
:0400c4000402000032
:020000040000fa
:0400c800040200002e
:020000040000fa
:0400cc00040200002a
:020000040000fa
:0400d0000402000026
:020000040000fa
:0400d4000402000022
:020000040000fa
:0400d800040200001e
:020000040000fa
:0400dc00040200001a
:020000040000fa
:0400e0000402000016
:020000040000fa
:0400e4000402000012
:020000040000fa
:0400e800040200000e
:020000040000fa
:0400ec00040200000a
:020000040000fa
:0400f0000402000006
:020000040000fa
:0400f4000402000002
:020000040000fa
:0400f80004020000fe
:020000040000fa
:0400fc0004020000fa
:020000040000fa
:0401000004020000f5
:020000040000fa
:0401040004020000f1
:020000040000fa
:0401080004020000ed
:020000040000fa
:04010c0004020000e9
:020000040000fa
:0401100004020000e5
:020000040000fa
:0401140004020000e1
:020000040000fa
:0401180004020000dd
:020000040000fa
:04011c0004020000d9
:020000040000fa
:0401200004020000d5
:020000040000fa
:0401240004020000d1
:020000040000fa
:0401280004020000cd
:020000040000fa
:04012c0004020000c9
:020000040000fa
:0401300004020000c5
:020000040000fa
:0401340004020000c1
:020000040000fa
:0401380004020000bd
:020000040000fa
:04013c0004020000b9
:020000040000fa
:0401400004020000b5
:020000040000fa
:0401440004020000b1
:020000040000fa
:0401480004020000ad
:020000040000fa
:04014c0004020000a9
:020000040000fa
:0401500004020000a5
:020000040000fa
:0401540004020000a1
:020000040000fa
:04015800040200009d
:020000040000fa
:04015c000402000099
:020000040000fa
:040160000402000095
:020000040000fa
:040164000402000091
:020000040000fa
:04016800040200008d
:020000040000fa
:04016c000402000089
:020000040000fa
:040170000402000085
:020000040000fa
:040174000402000081
:020000040000fa
:04017800040200007d
:020000040000fa
:04017c000402000079
:020000040000fa
:040180000402000075
:020000040000fa
:040184000402000071
:020000040000fa
:04018800040200006d
:020000040000fa
:04018c000402000069
:020000040000fa
:040190000402000065
:020000040000fa
:040194000402000061
:020000040000fa
:04019800040200005d
:020000040000fa
:04019c000402000059
:020000040000fa
:0401a0000402000055
:020000040000fa
:0401a4000402000051
:020000040000fa
:0401a800040200004d
:020000040000fa
:0401ac000402000049
:020000040000fa
:0401b0000402000045
:020000040000fa
:0401b4000402000041
:020000040000fa
:0401b800040200003d
:020000040000fa
:0401bc000402000039
:020000040000fa
:0401c0000402000035
:020000040000fa
:0401c4000402000031
:020000040000fa
:0401c800040200002d
:020000040000fa
:0401cc000402000029
:020000040000fa
:0401d0000402000025
:020000040000fa
:0401d4000402000021
:020000040000fa
:0401d800040200001d
:020000040000fa
:0401dc000402000019
:020000040000fa
:0401e0000402000015
:020000040000fa
:0401e4000402000011
:020000040000fa
:0401e800040200000d
:020000040000fa
:0401ec000402000009
:020000040000fa
:0401f0000402000005
:020000040000fa
:0401f4000402000001
:020000040000fa
:0401f80004020000fd
:020000040000fa
:0401fc0004020000f9
:020000040000fa
:100200000f8020000eff27000e0188000000000074
:10021000000020000000e000020032000001200089
:100220002002880014000700d40307000000e0004b
:1002300003003a0000002000010020000200370007
:100240000000200001002000810f7000010032003a
:1002500014000700000020000000e000020032004f
:1002600000000200000000008209020000000000ff
:100270000040da000000fe004440a90020002000f9
:100280000000e00003003200100020009001880010
:100290004440a800000006008a1f78008b1f7800e9
:1002a00000000600a1028800800478000000eb0036
:1002b0001f003700e284440054a0b4009905ba003e
:1002c000e284440054a0b4009906ba00e2844400d9
:1002d00054a0b4000006eb00476fde00fd07b2003b
:1002e000ae018800636ce10003003a00eaff0700fa
:1002f0000000eb000e003700606ce10008003a00df
:10030000004deb000a05e800020039003420ec0043
:100310000af0a0008b05e900f9ff3e000400370059
:100320006168e100010032000086eb000b0007006d
:1003300019c7ba001905ba000e04e00003003a001c
:100340000a00e000dbff3a0000000600fe07b200f2
:10035000ae0288008a047800f5ff37000cd0a300b5
:10036000e20f4d001c00390089027800354dba00bb
:100370000a05e800020039003420ec000af0a00071
:100380008b05e9000f003200254dba000a05e80090
:10039000020039003420ec000af0a0008b05e900cf
:1003a000080032000c00e0000600320015cdba0053
:1003b0000a05e800020039003420ec000af0a00031
:1003c0008b05e9008984e80054a0b4000b00e0002c
:1003d000e2ff3a00000006009902ba00055d7800cd
:1003e0008b05e900f7ff3200c82ade00055d7800c2
:1003f0008b05e900f3ff32000c00e000f1ff320052
:1004000019ddba00eeff37000040da000000fe0000
:100410000000fa0000088000000178000210a0002f
:10042000600420007105200003102000804978003e
:100430008149780082497800cc21ef00610e80006c
:1004400000002800008060000000e000070032008b
:10045000610e800000802000008060000000e0004d
:1004600001003a0004000700cde1a900cd61a90018
:100470000080fa00000006000200fa00881f7800e1
:10048000100280004500de0067406000004f7800e9
:1004900011028000000e2000010070001002880090
:1004a0000000000058052000383b8800a80a200002
:1004b000383b8800cd61a8009e40780067c060008e
:1004c0000080fb00670060004500dd001202800034
:1004d000f1f12f008100610001007000100288001e
:1004e000000000004f0478000080fa0000000600c1
:1004f0000a00fa0040079800000f800020079800cb
:10050000be009000100f80000100700030079800be
:10051000ae4090004e009000114098009e40900028
:100520004e00900021409800be4090004e00900088
:10053000014878009e4078004e00900031409800bd
:100540000080fa00000006000a00fa004007980048
:10055000400f800020079800be009000500f8000e0
:100560000100700030079800ae4090004e009000ef
:10057000114098009e4090004e009000214098004d
:10058000be4090004e009000014878009e407800e8
:100590004e009000314098000080fa0000000600f4
:1005a0000a00fa0040079800200f8000000f780032
:1005b000300f800010079800ce4090004e00900051
:1005c00031409800de4090004e009000214098009d
:1005d000ee4090004e009000114098000080fa001c
:1005e000000006000200fa00000f7800210f8000d2
:1005f0001e00780001087800310f80001e0078008e
:1006000011009800410f80001e0078002100980022
:10061000510f80001e007800310098000080fa0021
:10062000000006000a00fa0040079800e00e800073
:10063000000f7800f00e800010079800ce40900068
:100640004e00900031409800de4090004e00900037
:1006500021409800ee4090004e009000114098001c
:100660000080fa00000006000200fa00000f780087
:10067000e10e80001e00780001087800f10e800075
:100680001e00780011009800010f80001e00780005
:1006900021009800110f80001e00780031009800a2
:1006a0000080fa00000006000600fa00100798001b
:1006b00021079800700e80004f00de000040780097
:1006c0000080fb00000f78001e0078000000e000b2
:1006d000090032002e0090000000e000020032000d
:1006e000cfe1a90004003700c00e80006400600064
:1006f0000000e000fcff3a001e009000004078007f
:100700006f4060000080fb006f0060004800dd006b
:10071000720e8000f10f2f00810061000100700057
:10072000700e88001e0078000000e0000400320017
:100730002e0090000000e00001003200cfe1a80090
:100740000080fa00000006000600fa00204798002a
:1007500021079800700e80004f00de0000407800f6
:100760000080fb00000f78001e0078000000e00011
:10077000090032002e0090000000e000020032006c
:10078000cfe1a90004003700c00e800064006000c3
:100790000000e000fcff3a002e419000e11c200028
:1007a000824878001e0078000000e000040032005b
:1007b0002e0090000000e00001003200cfe1a80010
:1007c0000080fa00000006000600fa0010079800fa
:1007d00021079800700e80004f00de000040780076
:1007e0000080fb00000f78001e0078000000e00091
:1007f000090032002e0090000000e00002003200ec
:10080000cfe1a90004003700c00e80006400600042
:100810000000e000fcff3a001e009000004078005d
:10082000614060000080fb00610060004e00dd0060
:10083000720e8000f1ff2b0081006100010070004a
:10084000700e88001e0078000000e00004003200f6
:100850002e0090000000e00001003200cfe1a8006f
:100860000080fa00000006000a00fa004007980025
:100870004e00900020409000f24f500012003e00c9
:100880004e009000204090000004e0000e00320076
:100890004e0090009040900010c3b30080cf5000f5
:1008a00009003e004e009000104090000004e0005f
:1008b000050032004e009000b040900090c9b30097
:1008c00080cf5000020036000000eb002b00370004
:1008d0004e0090002040900060479800500f80002c
:1008e0000040780070479800600e80004b00de00ea
:1008f000614060000080fb00000f78001e0078005f
:100900000000e00001003a00dbfe0700700e8000ee
:100910004f00de00004078000080fb0010079800c8
:100920001e0090000000e00001003200cfe1a900ad
:100930004e00900010409000404798004e009000fc
:1009400010407800504798002e009000400f88001b
:100950003e009000500f88001e0090000000e00054
:1009600001003200cfe1a8001e0078000000e00086
:1009700001003a00cd61a900100020000080fa00bb
:10098000000006000a00fa00400798004e009000a0
:10099000a040900090c5b30080cf50000a003e00f8
:1009a0004e0090009040900090c5b30080cf500062
:1009b00005003e004e009000b040900040c2b300e1
:1009c00080cf5000020036000000eb002b00370003
:1009d000200f800000407800404798004e009000b3
:1009e0001040900050479800600e80004b00de00e1
:1009f000614060000080fb00000f78001e0078005e
:100a00000000e00001003a009bfe0700700e80002d
:100a10004f00de00004078000080fb0010079800c7
:100a20001e0090000000e00001003200cfe1a900ac
:100a30004e00900020409000604798004e009000cb
:100a400030409000704798003e009000300f8800c2
:100a50002e009000200f88001e0090000000e00093
:100a600001003200cfe1a8001e0078000000e00085
:100a700001003a00cd61a900100020000080fa00ba
:100a8000000006000600fa00200798002e009000e3
:100a9000f040900090c5b30080cf50001f003e0092
:100aa0002e009000e040900090c5b30080cf500031
:100ab0001a003e002e00900050409000e64f50007b
:100ac00016003e002e009000c040900040c2b300cf
:100ad00080cf500011003e002e009000304090006a
:100ae000f24f50000d003e002e009000304090006c
:100af0000004e000090032002e009000a0409000a9
:100b000010c3b30080cf500004003e002e009000c0
:100b1000204090000004e00002003a000000eb00da
:100b200027003700600e80004b00de00614060004f
:100b30000080fb00000f78001e0078000000e0003d
:100b400001003a004cfe0700700e80004f00de00ee
:100b5000004078000080fb00100798001e00900005
:100b60000000e00001003200cfe1a9002e0090005b
:100b700010007800200f88002e00900010009000d8
:100b8000300f88002e00900020009000400f880059
:100b90002e00900030009000300f88001e00900062
:100ba0000000e00001003200cfe1a8001e00780044
:100bb0000000e00001003a00cd61a9001000200013
:100bc0000080fa00000006001000fa00600798009c
:100bd000710798000000eb00100798006e0090006d
:100be00020409000f24f500012003e006e00900036
:100bf000204090000004e0000e0032006e009000e3
:100c00009040900010c3b30080cf500009003e0018
:100c10006e009000104090000004e00005003200db
:100c20006e009000b040900090c9b30080cf50009b
:100c3000020036000000eb00530037006e00900009
:100c400010409000104f98006e0090001040780007
:100c5000004f98006e00900030409000304f980098
:100c60006e00900020409000204f98007e00900081
:100c70000000e00009003200100280004500de00a4
:100c800067406000004f780011028000000e2000d5
:100c9000010070001002880000000000600e80005b
:100ca0004b00de00614060000080fb0020079800e0
:100cb0002e0090000000e00001003a00eefd070069
:100cc000600e80004f00de00004078000080fb00d6
:100cd000300798003e0090000000e000060032005f
:100ce000700e80004f00de00004078000080fb00a6
:100cf00010079800cde1a9004e009000000f880079
:100d00005e009000100f88003e0090000000e000a0
:100d10000a003200cde1a8001e0090000000e000b3
:100d200001003200cfe1a8002e0090000000e0009a
:100d300006003200d0fd0700040037002e009000ae
:100d40000000e00001003a00cd61a9007e009000a3
:100d50000000e0000b0032009e40780067c0600099
:100d60000080fb00670060004500dd00120280008b
:100d7000f1f12f0081006100010070001002880075
:100d800000000000100020000080fa0000000600b3
:100d90001000fa0060079800710798000000eb004f
:100da000100798006e009000a040900090c5b3001e
:100db00080cf50000a003e006e00900090409000ee
:100dc00090c5b30080cf500005003e006e0090003b
:100dd000b040900040c2b30080cf50000200360007
:100de0000000eb0053003700e00e80000040780068
:100df000204f98006e00900010409000304f9800f7
:100e00007e0090000000e000090032001002800027
:100e10004500de0067406000004f7800110280004e
:100e2000000e200001007000100288000000000089
:100e3000600e80004b00de00614060000080fb001f
:100e4000200798002e0090000000e00001003a000a
:100e500089fd0700600e80004f00de000040780032
:100e60000080fb00300798003e0090000000e0008a
:100e700006003200700e80004f00de000040780057
:100e80000080fb0010079800cde1a9006e009000e3
:100e900020409000004f98006e009000304090007d
:100ea000104f98004e009000f00e88005e009000f9
:100eb000e00e88003e0090000000e0000a003200d2
:100ec000cde1a8001e0090000000e000010032000b
:100ed000cfe1a8002e0090000000e00006003200e4
:100ee00065fd0700040037002e0090000000e000c0
:100ef00001003a00cd61a9007e0090000000e000f2
:100f00000b0032009e40780067c060000080fb004c
:100f1000670060004500dd0012028000f1f12f0043
:100f200081006100010070001002880000000000d4
:100f3000100020000080fa00000006000c00fa00fb
:100f400040079800510798000000eb00000f780060
:100f50004e009000f040900090c5b30080cf50004c
:100f600024003e004e009000e040900090c5b30089
:100f700080cf50001f003e004e0090005040900077
:100f8000e64f50001b003e004e009000c040900015
:100f900040c2b30080cf500016003e004e009000cb
:100fa00030409000f24f500012003e004e00900082
:100fb000304090000004e0000e0032004e0090002f
:100fc000a040900010c3b30080cf500009003e0045
:100fd0004e009000204090000004e0000500320028
:100fe0004e0090009040780090c9b30080cf500030
:100ff000020036000000eb004f0037005e0090005a
:101000000000e00009003200100280004500de0010
:10101000674060002047980011028000000e200009
:10102000010070001002880000000000600e8000c7
:101030004b00de00614060000080fb00200798004c
:101040002e0090000000e00001003a000afd0700b9
:10105000600e80004f00de00004078000080fb0042
:10106000300798003e0090000000e00006003200cb
:10107000700e80004f00de00004078000080fb0012
:10108000000f7800cde1a9004e009000100078001c
:10109000e00e88004e00900010009000f00e8800d6
:1010a0004e00900020009000200f88004e0090001d
:1010b00030009000300f88003e0090000000e000fb
:1010c0000a003200cde1a8001e0078000000e00018
:1010d00001003200cfe1a8002e0090000000e000e7
:1010e00006003200e4fc0700040037002e009000e8
:1010f0000000e00001003a00cd61a9005e00900010
:101100000000e0000b0032002e40900067406000bd
:101110000080fb00670060004500dd0012028000d7
:10112000f1f12f00810061000100700010028800c1
:1011300000000000100020000080fa0000000600ff
:101140000200fa00000f78001e00780000407800ce
:10115000614060000080fb00610060004a00dd002b
:10116000620e8000f1bf2f0081006100010070005d
:10117000600e88000080fa000000060000000500f4
:020000040000fa
:101180000400fa000108800011079800110880008f
:10119000000c2000010070001008880002a1a800c7
:1011a0000000eb00000f7800010037001e0fe80080
:1011b000702520009e007800808f5000fbff3600d5
:1011c00001088000f08f2f00008060000080a000e8
:1011d000000888000001a8000e80e8000000e80078
:1011e000104078000081fb0080072000a10920004a
:1011f00013102000804978008149780082497800e6
:101200000e80e800104078000081fb0060042000a0
:101210007105200003102000804978008149780082
:101220008249780000000000000880004c00de00c9
:10123000e7406000000880004800de006740600072
:1012400080cf5000f8ff3a000301a9001108800088
:10125000f0f32f00008060001008880002a1a800b1
:101260000080fa00000006000400fa002047980001
:1012700001088000010f780001088000f08f2f0026
:10128000008060000080a000000888000001a80025
:101290000e00e800104078000081fb00800720006d
:1012a000a1092000131020008049780081497800ae
:1012b000824978000e007800104078000081fb0021
:1012c0006004200071052000031020008049780090
:1012d0008149780082497800000000000008800001
:1012e0004c00de00e7406000000880004800de009f
:1012f0006740600080cf5000f8ff3a000080fa009d
:10130000000006000000fa000000eb000080fa0078
:0413100000000600d3
:020000040000fa
:020000040005f5
:045e0000ffff0000a0
:020000040000fa
:020000040005f5
:045e2000ff1f000060
:020000040000fa
:020000040005f5
:045e3000faffff0076
:020000040000fa
:020000040005f5
:045e38003effff002a
:020000040000fa
:020000040005f5
:045e4000ffffff0061
:020000040000fa
:020000040005f5
:045e4800ffffff0059
:020000040000fa
:020000040005f5
:045e5000dfffff0071
:020000040000fa
:020000040005f5
:045e5800ffffff0049
:00000001FF
