:020000040000fa
:080000000001040000000000f3
:020000040000fa
:0400080010020000e2
:020000040000fa
:04000c0010020000de
:020000040000fa
:0400100010020000da
:020000040000fa
:0400140010020000d6
:020000040000fa
:0400180010020000d2
:020000040000fa
:04001c0010020000ce
:020000040000fa
:0400200010020000ca
:020000040000fa
:0400240010020000c6
:020000040000fa
:0400280010020000c2
:020000040000fa
:04002c0010020000be
:020000040000fa
:0400300010020000ba
:020000040000fa
:0400340010020000b6
:020000040000fa
:0400380010020000b2
:020000040000fa
:04003c0010020000ae
:020000040000fa
:0400400010020000aa
:020000040000fa
:0400440010020000a6
:020000040000fa
:0400480010020000a2
:020000040000fa
:04004c00100200009e
:020000040000fa
:04005000100200009a
:020000040000fa
:040054001002000096
:020000040000fa
:040058001002000092
:020000040000fa
:04005c00100200008e
:020000040000fa
:04006000100200008a
:020000040000fa
:040064001002000086
:020000040000fa
:040068001002000082
:020000040000fa
:04006c00100200007e
:020000040000fa
:04007000100200007a
:020000040000fa
:040074001002000076
:020000040000fa
:040078001002000072
:020000040000fa
:04007c00100200006e
:020000040000fa
:04008000100200006a
:020000040000fa
:040084001002000066
:020000040000fa
:040088001002000062
:020000040000fa
:04008c00100200005e
:020000040000fa
:04009000100200005a
:020000040000fa
:040094001002000056
:020000040000fa
:040098001002000052
:020000040000fa
:04009c00100200004e
:020000040000fa
:0400a000100200004a
:020000040000fa
:0400a4001002000046
:020000040000fa
:0400a8001002000042
:020000040000fa
:0400ac00100200003e
:020000040000fa
:0400b000100200003a
:020000040000fa
:0400b4001002000036
:020000040000fa
:0400b8001002000032
:020000040000fa
:0400bc00100200002e
:020000040000fa
:0400c000100200002a
:020000040000fa
:0400c4001002000026
:020000040000fa
:0400c8001002000022
:020000040000fa
:0400cc00100200001e
:020000040000fa
:0400d000100200001a
:020000040000fa
:0400d4001002000016
:020000040000fa
:0400d8001002000012
:020000040000fa
:0400dc00100200000e
:020000040000fa
:0400e000100200000a
:020000040000fa
:0400e4001002000006
:020000040000fa
:0400e8001002000002
:020000040000fa
:0400ec0010020000fe
:020000040000fa
:0400f00010020000fa
:020000040000fa
:0400f40010020000f6
:020000040000fa
:0400f80010020000f2
:020000040000fa
:0400fc0010020000ee
:020000040000fa
:0401000010020000e9
:020000040000fa
:0401040010020000e5
:020000040000fa
:0401080010020000e1
:020000040000fa
:04010c0010020000dd
:020000040000fa
:0401100010020000d9
:020000040000fa
:0401140010020000d5
:020000040000fa
:0401180010020000d1
:020000040000fa
:04011c0010020000cd
:020000040000fa
:0401200010020000c9
:020000040000fa
:0401240010020000c5
:020000040000fa
:0401280010020000c1
:020000040000fa
:04012c0010020000bd
:020000040000fa
:0401300010020000b9
:020000040000fa
:0401340010020000b5
:020000040000fa
:0401380010020000b1
:020000040000fa
:04013c0010020000ad
:020000040000fa
:0401400010020000a9
:020000040000fa
:0401440010020000a5
:020000040000fa
:0401480010020000a1
:020000040000fa
:04014c00100200009d
:020000040000fa
:040150001002000099
:020000040000fa
:040154001002000095
:020000040000fa
:040158001002000091
:020000040000fa
:04015c00100200008d
:020000040000fa
:040160001002000089
:020000040000fa
:040164001002000085
:020000040000fa
:040168001002000081
:020000040000fa
:04016c00100200007d
:020000040000fa
:040170001002000079
:020000040000fa
:040174001002000075
:020000040000fa
:040178001002000071
:020000040000fa
:04017c00100200006d
:020000040000fa
:040180001002000069
:020000040000fa
:040184001002000065
:020000040000fa
:040188001002000061
:020000040000fa
:04018c00100200005d
:020000040000fa
:040190001002000059
:020000040000fa
:040194001002000055
:020000040000fa
:040198001002000051
:020000040000fa
:04019c00100200004d
:020000040000fa
:0401a0001002000049
:020000040000fa
:0401a4001002000045
:020000040000fa
:0401a8001002000041
:020000040000fa
:0401ac00100200003d
:020000040000fa
:0401b0001002000039
:020000040000fa
:0401b4001002000035
:020000040000fa
:0401b8001002000031
:020000040000fa
:0401bc00100200002d
:020000040000fa
:0401c0001002000029
:020000040000fa
:0401c4001002000025
:020000040000fa
:0401c8001002000021
:020000040000fa
:0401cc00100200001d
:020000040000fa
:0401d0001002000019
:020000040000fa
:0401d4001002000015
:020000040000fa
:0401d8001002000011
:020000040000fa
:0401dc00100200000d
:020000040000fa
:0401e0001002000009
:020000040000fa
:0401e4001002000005
:020000040000fa
:0401e8001002000001
:020000040000fa
:0401ec0010020000fd
:020000040000fa
:0401f00010020000f9
:020000040000fa
:0401f40010020000f5
:020000040000fa
:0401f80010020000f1
:020000040000fa
:0401fc0010020000ed
:020000040000fa
:100200002f8e20000eff27000e0188000000000046
:10021000000020000000e000020032000001200089
:1002200020028800140007004f0407000000e000cf
:1002300003003a00e05d22000100200002003700c8
:100240000000200001002000810f7000010032003a
:1002500014000700000020000000e000020032004f
:1002600000000200000000007c27020000000000e7
:100270000040da000000fe004440a900801b20007e
:100280000000e00003003200002020009001880000
:100290004440a800000006008a1f78008b1f7800e9
:1002a00000000600a1028800800478000000eb0036
:1002b0001f003700e284440054a0b4009905ba003e
:1002c000e284440054a0b4009906ba00e2844400d9
:1002d00054a0b4000006eb00476fde00fd07b2003b
:1002e000ae018800636ce10003003a00eaff0700fa
:1002f0000000eb000e003700606ce10008003a00df
:10030000004deb000a05e800020039003420ec0043
:100310000af0a0008b05e900f9ff3e000400370059
:100320006168e100010032000086eb000b0007006d
:1003300019c7ba001905ba000e04e00003003a001c
:100340000a00e000dbff3a0000000600fe07b200f2
:10035000ae0288008a047800f5ff37000cd0a300b5
:10036000e20f4d001c00390089027800354dba00bb
:100370000a05e800020039003420ec000af0a00071
:100380008b05e9000f003200254dba000a05e80090
:10039000020039003420ec000af0a0008b05e900cf
:1003a000080032000c00e0000600320015cdba0053
:1003b0000a05e800020039003420ec000af0a00031
:1003c0008b05e9008984e80054a0b4000b00e0002c
:1003d000e2ff3a00000006009902ba00055d7800cd
:1003e0008b05e900f7ff3200c82ade00055d7800c2
:1003f0008b05e900f3ff32000c00e000f1ff320052
:1004000019ddba00eeff3700840c04000000000084
:100410000000040000000000bc0c0400000000000c
:100420000040da000000fe000a00fa00110020007f
:10043000b1bf9f00c0bf9f006a805700310a07000c
:100440004fb897000080fa00000006000a00fa008a
:10045000e20f500034003e00f0468000e10f5000f3
:1004600003003200e20f500011003a000c00370088
:10047000833920000300e00001003a000040da0068
:100480009803e20002003500a023ef0099e3a800e2
:100490009b43ab000d003a009b43a8000b003700c4
:1004a000e33a20000300e00001003a000040da00d7
:1004b000ae03e20002003500b623ef00afe3a80070
:1004c000b143ab0001003a00b143a80082017800bb
:1004d0000b0037003102fb00e10f500004003a002e
:1004e0009b23ab00feff3a00e41c880003003700aa
:1004f000b123ab00feff3a00941d88008301e900a0
:100500000300e000f3ff3a00e10f500003003a005f
:100510009b03ab00feff32000b003700b103ab00c2
:10052000feff32000800370033002000b3bf9f00f9
:10053000c0bf9f00d1bf9f00e2bf9f006a805700ed
:10054000f20907006fb99700020078000080fa00f6
:10055000000006000a00fa0051002000b1bf9f0011
:10056000c0bf9f006a805700ea0907005fb8970084
:100570000080fa0000000600889fbe00800478001a
:10058000004780000000e00004003a000e00070071
:100590000084eb000000e000080035000847800000
:1005a0000900e000050032000900440006000700d1
:1005b0000000e00001003d000084eb00080078002e
:1005c0004f04be0000000600800078000100e0003b
:1005d00003003a00000020000047880000000500ea
:1005e0000080eb0002002000828f500002003e00dd
:1005f000014788000000eb00000006000000fa0040
:1006000000088000000178000210a00060042000b3
:10061000710520000310200080497800814978008e
:1006200082497800cc21ef00610e80000000280094
:10063000008060000000e00007003200610e8000d2
:1006400000802000008060000000e00001003a000f
:1006500004000700cde1a900cd61a9000080fa00e7
:10066000000006000200fa00881f780010028000d7
:100670004500de0067406000004f780011028000f6
:10068000000e200001007000100288000000000031
:1006900058052000383b8800a80a2000383b880015
:1006a000cd61a8009e40780067c060000080fb001c
:1006b000670060004500dd0012028000f1f12f00ac
:1006c000810061000100700010028800000000003d
:1006d0004f0478000080fa00000006000a00fa00cb
:1006e00040079800000f800020079800be0090008f
:1006f000100f80000100700030079800ae4090009d
:100700004e009000114098009e4090004e009000d6
:1007100021409800be4090004e00900001487800b3
:100720009e4078004e009000314098000080fa0012
:10073000000006000a00fa0040079800400f800001
:1007400020079800be009000500f8000010070004c
:1007500030079800ae4090004e0090001140980085
:100760009e4090004e00900021409800be409000b6
:100770004e009000014878009e4078004e009000a6
:10078000314098000080fa00000006000a00fa00dc
:1007900040079800200f8000000f7800300f800085
:1007a00010079800ce4090004e0090003140980015
:1007b000de4090004e00900021409800ee409000f6
:1007c0004e009000114098000080fa0000000600e2
:1007d0000200fa00000f7800210f80001e00780050
:1007e00001087800310f80001e0078001100980089
:1007f000410f80001e00780021009800510f8000fa
:100800001e007800310098000080fa000000060009
:100810000a00fa0040079800e00e8000000f780000
:10082000f00e800010079800ce4090004e0090001f
:1008300031409800de4090004e009000214098002a
:10084000ee4090004e009000114098000080fa00a9
:10085000000006000200fa00000f7800e10e8000a0
:100860001e00780001087800f10e80001e0078005c
:1008700011009800010f80001e00780021009800f0
:10088000110f80001e007800310098000080fa00ef
:10089000000006000600fa001007980021079800e3
:1008a000700e80004f00de00004078000080fb00ea
:1008b000000f78001e0078000000e0000900320000
:1008c0002e0090000000e00002003200cfe1a900fd
:1008d00004003700c00e8000640060000000e000eb
:1008e000fcff3a001e009000004078006f4060005e
:1008f0000080fb006f0060004800dd00720e800089
:10090000f10f2f008100610001007000700e88005f
:100910001e0078000000e000040032002e0090006d
:100920000000e00001003200cfe1a8000080fa00e2
:10093000000006000600fa002047980021079800f2
:10094000700e80004f00de00004078000080fb0049
:10095000000f78001e0078000000e000090032005f
:100960002e0090000000e00002003200cfe1a9005c
:1009700004003700c00e8000640060000000e0004a
:10098000fcff3a002e419000e11c200082487800d4
:100990001e0078000000e000040032002e009000ed
:1009a0000000e00001003200cfe1a8000080fa0062
:1009b000000006000600fa001007980021079800c2
:1009c000700e80004f00de00004078000080fb00c9
:1009d000000f78001e0078000000e00009003200df
:1009e0002e0090000000e00002003200cfe1a900dc
:1009f00004003700c00e8000640060000000e000ca
:100a0000fcff3a001e00900000407800614060004a
:100a10000080fb00610060004e00dd00720e80006f
:100a2000f1ff2b008100610001007000700e880052
:100a30001e0078000000e000040032002e0090004c
:100a40000000e00001003200cfe1a8000080fa00c1
:100a5000000006000a00fa00400798004e009000cf
:100a600020409000f24f500012003e004e009000d7
:100a7000204090000004e0000e0032004e00900084
:100a80009040900010c3b30080cf500009003e009a
:100a90004e009000104090000004e000050032007d
:100aa0004e009000b040900090c9b30080cf50003d
:100ab000020036000000eb002b0037004e009000d3
:100ac0002040900060479800500f80000040780060
:100ad00070479800600e80004b00de0061406000af
:100ae0000080fb00000f78001e0078000000e0008e
:100af00001003a00dbfe0700700e80004f00de00b0
:100b0000004078000080fb00100798001e00900055
:100b10000000e00001003200cfe1a9004e0090008b
:100b200010409000404798004e0090001040780020
:100b3000504798002e009000400f88003e00900023
:100b4000500f88001e0090000000e00001003200fd
:100b5000cfe1a8001e0078000000e00001003a008c
:100b6000cd61a900100020000080fa0000000600fe
:100b70000a00fa00400798004e009000a040900044
:100b800090c5b30080cf50000a003e004e00900098
:100b90009040900090c5b30080cf500005003e000b
:100ba0004e009000b040900040c2b30080cf500093
:100bb000020036000000eb002b003700200f800001
:100bc00000407800404798004e0090001040900090
:100bd00050479800600e80004b00de0061406000ce
:100be0000080fb00000f78001e0078000000e0008d
:100bf00001003a009bfe0700700e80004f00de00ef
:100c0000004078000080fb00100798001e00900054
:100c10000000e00001003200cfe1a9004e0090008a
:100c200020409000604798004e00900030409000b7
:100c3000704798003e009000300f88002e00900012
:100c4000200f88001e0090000000e000010032002c
:100c5000cfe1a8001e0078000000e00001003a008b
:100c6000cd61a900100020000080fa0000000600fd
:100c70000600fa00200798002e009000f040900037
:100c800090c5b30080cf50001f003e002e009000a2
:100c9000e040900090c5b30080cf50001a003e00a5
:100ca0002e00900050409000e64f500016003e008d
:100cb0002e009000c040900040c2b30080cf500092
:100cc00011003e002e00900030409000f24f500086
:100cd0000d003e002e009000304090000004e00027
:100ce000090032002e009000a040900010c3b30015
:100cf00080cf500004003e002e0090002040900065
:100d00000004e00002003a000000eb00270037007a
:100d1000600e80004b00de00614060000080fb0040
:100d2000000f78001e0078000000e00001003a008b
:100d30004cfe0700700e80004f00de00004078007f
:100d40000080fb00100798001e0090000000e000eb
:100d500001003200cfe1a9002e00900010007800c1
:100d6000200f88002e00900010009000300f8800a7
:100d70002e00900020009000400f88002e00900070
:100d800030009000300f88001e0090000000e0004e
:100d900001003200cfe1a8001e0078000000e00052
:100da00001003a00cd61a900100020000080fa0087
:100db000000006001000fa00600798007107980014
:100dc0000000eb00100798006e009000204090009b
:100dd000f24f500012003e006e0090002040900044
:100de0000004e0000e0032006e0090009040900081
:100df00010c3b30080cf500009003e006e00900089
:100e0000104090000004e000050032006e009000e9
:100e1000b040900090c9b30080cf5000020036006f
:100e20000000eb00530037006e009000104090006f
:100e3000104f98006e00900010407800004f98000e
:100e40006e00900030409000304f98006e0090008f
:100e500020409000204f98007e0090000000e000ad
:100e600009003200100280004500de00674060008b
:100e7000004f780011028000000e20000100700079
:100e80001002880000000000600e80004b00de00b1
:100e9000614060000080fb00200798002e00900059
:100ea0000000e00001003a00eefd0700600e800047
:100eb0004f00de00004078000080fb003007980003
:100ec0003e0090000000e00006003200700e80003e
:100ed0004f00de00004078000080fb001007980003
:100ee000cde1a9004e009000000f88005e00900048
:100ef000100f88003e0090000000e0000a00320061
:100f0000cde1a8001e0090000000e00001003200ca
:100f1000cfe1a8002e0090000000e00006003200a3
:100f2000d0fd0700040037002e0090000000e00014
:100f300001003a00cd61a9007e0090000000e000b1
:100f40000b0032009e40780067c060000080fb000c
:100f5000670060004500dd0012028000f1f12f0003
:100f60008100610001007000100288000000000094
:100f7000100020000080fa00000006001000fa00b7
:100f800060079800710798000000eb0010079800b8
:100f90006e009000a040900090c5b30080cf50003c
:100fa0000a003e006e0090009040900090c5b30093
:100fb00080cf500005003e006e009000b0409000d1
:100fc00040c2b30080cf5000020036000000eb00aa
:100fd00053003700e00e800000407800204f98005a
:100fe0006e00900010409000304f98007e009000fe
:100ff0000000e00009003200100280004500de0021
:1010000067406000004f780011028000000e200051
:10101000010070001002880000000000600e8000d7
:101020004b00de00614060000080fb00200798005c
:101030002e0090000000e00001003a0089fd07004a
:10104000600e80004f00de00004078000080fb0052
:10105000300798003e0090000000e00006003200db
:10106000700e80004f00de00004078000080fb0022
:1010700010079800cde1a9006e009000204090007c
:10108000004f98006e00900030409000104f980084
:101090004e009000f00e88005e009000e00e880088
:1010a0003e0090000000e0000a003200cde1a80000
:1010b0001e0090000000e00001003200cfe1a80017
:1010c0002e0090000000e0000600320065fd0700e1
:1010d000040037002e0090000000e00001003a00fc
:1010e000cd61a9007e0090000000e0000b003200fe
:1010f0009e40780067c060000080fb0067006000d1
:101100004500dd0012028000f1f12f008100610036
:101110000100700010028800000000001000200094
:101120000080fa00000006000c00fa00400798005a
:10113000510798000000eb00000f78004e0090006f
:10114000f040900090c5b30080cf500024003e00d6
:101150004e009000e040900090c5b30080cf50005a
:101160001f003e004e00900050409000e64f50009f
:101170001b003e004e009000c040900040c2b300f3
:1011800080cf500016003e004e009000304090008e
:10119000f24f500012003e004e0090003040900090
:1011a0000004e0000e0032004e009000a0409000cd
:1011b00010c3b30080cf500009003e004e009000e5
:1011c000204090000004e000050032004e00900036
:1011d0009040780090c9b30080cf500002003600e4
:1011e0000000eb004f0037005e0090000000e000c0
:1011f00009003200100280004500de0067406000f8
:101200002047980011028000000e200001007000ad
:101210001002880000000000600e80004b00de001d
:10122000614060000080fb00200798002e009000c5
:101230000000e00001003a000afd0700600e800097
:101240004f00de00004078000080fb00300798006f
:101250003e0090000000e00006003200700e8000aa
:101260004f00de00004078000080fb00000f780097
:10127000cde1a9004e00900010007800e00e88003b
:101280004e00900010009000f00e88004e0090007c
:1012900020009000200f88004e0090003000900049
:1012a000300f88003e0090000000e0000a0032008d
:1012b000cde1a8001e0078000000e000010032002f
:1012c000cfe1a8002e0090000000e00006003200f0
:1012d000e4fc0700040037002e0090000000e0004e
:1012e00001003a00cd61a9005e0090000000e0001e
:1012f0000b0032002e409000674060000080fb0031
:10130000670060004500dd0012028000f1f12f004f
:1013100081006100010070001002880000000000e0
:10132000100020000080fa00000006000200fa0011
:10133000000f78001e0078000040780061406000d7
:101340000080fb00610060004a00dd00620e80004a
:10135000f1bf2f008100610001007000600e880065
:101360000080fa000000060000000500a1832000b4
:101370000b003700a18320006a000700800078007e
:101380000080eb000100e00004003500a183200094
:10139000a0002000020007004f80de0000000600d1
:1013a000889fbe008a1f78000004be00c90090001c
:1013b00069009000808f5000050039000900780016
:1013c000b70007008080eb000000e0001600350049
:1013d000084578004900900008587800c00498003b
:1013e0001900780000b8a30004003a0000a8a30088
:1013f00007003200ea4f540005003a000900780067
:101400000d0007008080eb000000e00006003a00bd
:1014100000c0200019006000020032004900900066
:10142000e00498008a80fb00010078004f057800f6
:101430004f04be0000000600889fbe008a1f78008f
:10144000000478000800e0000d003a0088882000c1
:10145000700544008004eb00580078000000e000b4
:1014600004003200f4ff07000000e00001003d002e
:101470008084eb008a0f5400f7ff3a002500370004
:1014800000002200180060008004eb002100320000
:10149000a80490000f003700090151003840900067
:1014a0000000fb0089007800e8fb07000000e00076
:1014b00007003c0028009000400498006004980059
:1014c000500c98001890a0008084eb0011003700a9
:1014d0008084440048019000828f5400eeff390060
:1014e00028009000400498009800780002c0200076
:1014f0000281600001003a003800900001e8a3007a
:10150000020032006004980001003700500c98007f
:101510008004eb00090078004f0578004f04be00fe
:1015200000000600889fbe008a9fbe0080047800ed
:10153000010478002c003700c8009000680090007b
:10154000808f500004003900080078005400070024
:101550000000e00037003500004020001800600067
:1015600009003200a10020000900780042000700b5
:10157000800578000b00e000030032006185140054
:101580000a85450004003700090078003400070090
:10159000000578008005eb0048009000e80090000e
:1015a000808050008a8f50000200310001057800d1
:1015b0008005eb000a01780089007800210007000f
:1015c000480090000a004000400498000b00e00032
:1015d000040032000800780097ff07000000e000d8
:1015e00014003a008a8444001904e000d2ff3a0053
:1015f000008020001800600006003200080078001b
:101600008dff0700800078000080eb000100e00003
:1016100009003a0001c02000988060000000eb0043
:101620000500320048009000600498000000eb00c4
:10163000010037000080eb004f05be004f04be00e4
:10164000000006008001780002003700b1597800e0
:101650000201e9000200e000fcff3a000000060081
:1016600080007800010178003104e000fdff3a00bd
:1016700000005100000006000001eb0000027800ad
:10168000b041780081cf510001003a000401780098
:101690000304e000f9ff3a000200780000000600b1
:1016a000889fbe008a1f780000047800c800900060
:1016b000680190000000eb00828f50003c00390070
:1016c000180078002200290002016000e20f51009a
:1016d00007003200012024000000e00001003d006e
:1016e00001202000008c70000080eb0030003700eb
:1016f0000200260002006000820f500009003a003c
:1017000038009000808f50000600390008007800f3
:1017100049ff0700800078000080eb000100e00036
:1017200023003a001805780000c020000000650082
:1017300018003a00a8049000600220000800400051
:10174000808f540013003a00002020003603070069
:10175000200498000000e00005003a0029049800e9
:10176000490498008904e80039049800080037000b
:101770000a60a0000a0c78004004980001202000b4
:101780008080400031049800400c9800500c980074
:101790000c000700280090005004980038009000ca
:1017a0006004980000002600180c70000000eb0098
:1017b0004f0578004f04be000000060040c820001e
:1017c00061003700881f7800a88d20001804e00011
:1017d00003003a00f9ff070020c0b300004c780076
:1017e0004f04780000000600889fbe0000047800c7
:1017f0000800780010ff0700800478000004200033
:101800001800600002003200280090004d0207001e
:101810000000eb0020049800384090000004e00035
:10182000050035000000fb00fffa07000000e000a3
:10183000010032008084eb00181090000000e000ee
:101840000800320043fb07000000e0000100320006
:101850008084eb00181090003a0207000000eb00b3
:1018600010149800000820001800600015003200d5
:101870000001eb006000b800a38820000202d00045
:1018800063027a00880f520005003a000000400011
:1018900081804800008041000008eb00060037000e
:1018a00061004000e08048000201e800e80f5000bd
:1018b000e08f5800f0ff3a0008007800210207008e
:1018c0000e003700000c780000c0eb003044980098
:1018d00060022000080040002004980040049800a6
:1018e00050049800400c980060049800500c980038
:1018f0007004980076004400000c980009007800fd
:101900004f04be0000000600881f78000004eb00b2
:101910006140b800e2ff2f00f3ff2f002105070010
:1019200082892000620078000000e000010032009f
:10193000adff07000804e800e80f5400f4ff3a0088
:101940004f04780000000600010020000100e000c4
:1019500008003200010080000100e00005003200b4
:101960008100e900010088008100d00002008000b1
:1019700000b1780000000600889fbe0000047800d7
:10198000010078008204780088017800090178005d
:10199000110020001d020700890f500001003200d5
:1019a0000004eb00080078004f04be0000000600b1
:1019b0000000fa00e88157004fb99700a18320008a
:1019c000c0cb2000020007000080fa0000000600e3
:1019d0006200fa00889fbe008a1f78000005780028
:1019e00081047800020478008300780080f92f00d9
:1019f0000f004000c10407009a979f00a9979f001d
:101a00000000eb00b09f9f001885fb008a04fb00dc
:101a10000a05ea004f55de0050022000808f540076
:101a20000d003200e10f55000b003a000a0178006a
:101a3000880078002f9097009f9197000300010085
:101a4000a0979f000000e0008e0032003f989700b2
:101a50000000e800b09f9f000a04440050022000ec
:101a6000808f5400040032000900e000e6ff3a00d5
:101a70003f989700840037000000eb00909f9f0084
:101a8000809f9f00f0979f00e0979f00d0979f0056
:101a9000c0979f0007003700018d20000100500013
:101aa00000004000418c200061007800df98970022
:101ab00001007000d09f9f0088047800090478001e
:101ac000384578008a00fb00008d20008a0207005c
:101ad0000000e000f0ff3a00a1c2b300814f5500c2
:101ae0000e003a00cf8897000180e900c08f9f0068
:101af00010007800c09f9f000000e00005003d003e
:101b00000000ea00c09f9f005f9897000020a0009f
:101b1000d09f9f000904e8000f003700c09f9f007e
:101b20000000eb0005003700f2ff2700820f500095
:101b3000020032006a01b900028040000904780006
:101b400088047800b900fb000103b100e98f500060
:101b5000f5ff3600c09f9f00e0c2b300984f100011
:101b6000020032000080eb0019003700a0c2b30071
:101b7000d84f100007003a00cf8897000180e90095
:101b8000c08f9f0010007800a09f9f000804e8000d
:101b9000100037000000eb00a09f9f008800780035
:101ba00005003700f3ff2700830f500002003200ca
:101bb0006a02b9000400410001047800880078003e
:101bc0003101fb000203b100e90f5100f5ff3600bf
:101bd000a09f9f00984478008900fb00c08b2000e4
:101be000450207000000e000020032000804e8009f
:101bf000010037008044eb00c97f9f0080c6b3001e
:101c000080cf540004003a0098cf14000a003a0034
:101c10006640500006003700c0c6b30080cf5400b5
:101c200005003a0098cf140003003a0065404000d8
:101c3000c07f9f000804e8001801fb00e3fb2f00b1
:101c40008f81410081f92f008f804000a0f92f0083
:101c50000f004000100007000000e00009003a00fb
:101c6000e1fb2f008f804000a0f92f000f00400003
:101c7000660307000000e000020035000804e800e9
:101c800061ff37000080eb004f0578004f04be0075
:101c90000080fa0000000600889fbe008a1f7800be
:101ca00000047800e0c6b300804f5100c10032004c
:101cb00015003c006b405000804f51002400320062
:101cc0000a003c0070405000804f5100fa00320082
:101cd00065404000804f51006800320050c2b300a0
:101ce000804f51000b013a000701370040c6b30096
:101cf000804f51001b00320065404000804f510072
:101d000004013a001700370030c7b300804f51007c
:101d1000e900320007003c0064405000804f510051
:101d2000560032000040e800804f5100f9003a00b0
:101d3000d300370050c7b300804f51004f0032002e
:101d400063404000804f5100f2003a004b003700e2
:101d50001181e90082087800780090001241780033
:101d6000ea00370028609000c4c6b300844f5000da
:101d700007003a00110278006400520080087800e1
:101d80001002be004fabde00860378001100370062
:101d900014c7b300844f500003003200a4c6b30040
:101da000844f500006003a0011027800680052008b
:101db000800878003002be002003be000500370016
:101dc0001180e9008008780010027800cfa2de00c0
:101dd000612bb900049cbe000694be0028609000f0
:101de00081c6b300814f50000d00320021c6b30000
:101df000814f500004003a000402fb00cfa2de0035
:101e0000612bb9000800370041c7b300814f500073
:101e100003003200e6c04000814f500004003a0049
:101e2000cfa2de00612bb900049cbe000694be0068
:101e30003802be002803be0078009000d1c2b30073
:101e4000e00f5200e08f5a00e00f5b00e08f5b0074
:101e500008003500881090000118a300020032002d
:101e6000b1c2b300030037000108a3004c003200e8
:101e700001c2b300817178004700370028609000ec
:101e8000c4c6b300844f500006003a001102780027
:101e900064005200800878001002be006033b80071
:101ea0001100370014c7b300844f50000300320004
:101eb000a4c6b300844f500006003a001102780017
:101ec00068005200800878003002be002003be0087
:101ed000050037001180e9008008780010027800c2
:101ee0008002eb006033b800049cbe000694be0084
:101ef0002860900081c6b300814f50000d00320071
:101f000021c6b300814f500004003a000482fb0058
:101f10008002eb006033b8000800370041c7b3000f
:101f2000814f500003003200e6c04000814f500056
:101f300004003a008002eb006033b800049cbe004d
:101f40000694be00081090000038a3001400320070
:101f50003802be002803be00e00f5200e08f5a0096
:101f6000e00f5b00e08f5b000d00320080c7b30024
:101f7000804f51000300320080c5b300804f5100f4
:101f800007003a007800900001c3b3008171780027
:101f90000000e800827178000000e80070049800fa
:101fa00078009000808141006304980082407800ae
:101fb0003e00370028619000c3c6b3001180e900dd
:101fc000834f5100220032000a003c00e4c151005e
:101fd000834f51002500320083c1e800834f510038
:101fe00013003200e8c15100834f51001e003a0037
:101ff0000a00370043c7b300834f51001b00320073
:10200000e6c14100834f510018003200e9c1510080
:10201000834f510014003a00050037008008780013
:1020200010007800485c90000848780041003700b4
:102030008008780010007800680a9000cfa2de00c7
:10204000612bb9000498be000690be00390037002d
:10205000800878001000780068099000cf91de00b9
:102060000288be00330037001180e9008008780044
:1020700010007800680c9000080878002d003700e8
:102080001180e9008008780010027800cfa2de00fd
:10209000612bb900049cbe000694be00780090003d
:1020a000808141006304980081c7b3000800780074
:1020b000270107001f0037001180e9008008780021
:1020c000100578006a049800d80c90000900e00020
:1020d00004003d000a00780061fd070080047800dc
:1020e00007003700090178008000eb000a00780043
:1020f000f70007000000e000010032008a045000f1
:10210000190c98000b00370078009000827178005d
:102110000600370078009000808141000204e00052
:1021200001003a0052c2b300824978000000e80082
:10213000700498000000eb004f0578004f04be00cb
:10214000000006000000e0002f003200c00178000f
:10215000e38f51002c0036000308a3002a003a0048
:10216000c14680000100e00002003200810f5000f3
:102170000400310011009800c046880016003700a6
:1021800082007800110190000200e000020032009d
:10219000800f5100faff390011027800848240005c
:1021a000850f500018003900808f520003003a005c
:1021b0008308420001007800070037000200e000b9
:1021c0000300320083014000830f51000e003900ec
:1021d0001200980090009800900090000100e0002c
:1021e0000900320010014000828f500006003a00c2
:1021f000628d20000009eb001001780011084100f9
:10220000910090001100980000000600889fbe0019
:102210008a9fbe008c9fbe008e1f7800000678004b
:102220000104780002007800830478000881b90076
:10223000020778000200e000420032000800e000df
:102240004100320082057800c900900069009000ca
:10225000808f5000040039000900780010fd07004d
:102260000000e00029003500004020001900600057
:102270000a0032000b017800a10020000c00780059
:1022800093000700800678000d00e0000600320091
:10229000610516000a854600040037000b0578002a
:1022a0008006eb00010037000b0578004900900024
:1022b000e9009000808050008a8f500002003100b9
:1022c000010578008006eb000a0178008c00780098
:1022d000dcfc07008a855500490090000a00400098
:1022e000c00498000d00e0000400320009007800ee
:1022f00051fc07000000e00004003a000b00e00081
:10230000020032000a064600cfff3700008020009e
:1023100019006000020032000900780046fc070046
:1023200000c0200019006000020032004900900047
:10233000e00498008b055700110009008885d8003b
:10234000010037000000eb004f0778004f06be0089
:102350004f05be004f04be0000000600889fbe006f
:1023600000047800b14680000100e0000200320065
:10237000010078000d003700c1468000808d2000ec
:1023800004003700910f5400250036000180e8005a
:10239000910090000100e000faff3a0010003700c1
:1023a000920f54001e0036000280e80010017800f1
:1023b0000200e000faff3a0011017800c1468000f7
:1023c000808d200004003700910f54001400360067
:1023d0000180e80091009000828f5000faff3a00df
:1023e000e9468000888f540001003100880478009d
:1023f000090078004c0007000000e00004003a00eb
:10240000888f5400050032008904d100f5ff3700a1
:10241000091878004bff0700d2ff37000000eb00df
:102420004f04be0000000600881f780063044000cf
:102430000800a1008000eb00800f5400210036004e
:10244000e30f540001003e0048002000080078001f
:10245000c2ff07008000eb000000e000190032001e
:10246000900078009101780064815100880f51003c
:1024700003003100110190000208780007003700c6
:102480000881400002087800910190001301980033
:1024900010017800110914008808780010017800f4
:1024a0000000eb000200e000040032009201900006
:1024b0000300e000010032000280e800b04688001e
:1024c0008180e800010078004f04780000000600d9
:1024d00003003700b0cf1000050032000201e90010
:1024e000800178000200e000faff3a0000000500d9
:1024f0000300780000000600020037000304e0003b
:10250000060032000001780002007800b041780037
:1025100081cf5100f9ff3a00010037000001eb00c4
:102520000200780000000600800078000000eb0048
:102530000100e00005003400010078000ef80700fb
:10254000e10f400001003a000000eb00000006002f
:10255000fc874700889fbe008a9fbe008c9fbe00fc
:102560008e1f78000006780080c5b30080cf500031
:102570000a0032007740400080cf50000a0032004d
:102580006940400080cf50000b003200b08a20002c
:1025900080bf9f00ae0020000a003700a289200003
:1025a00082bf9f0006003700b38a200083bf9f00d0
:1025b0008e00200003003700b48a200084bf9f00f3
:1025c0000e0120003c02be002c03be000605be002a
:1025d0000404be0040c6b30080cf500003003200a8
:1025e0006540400080cf50000b003a00e00f5200e1
:1025f000e08f5a00e00f5b00e08f5b0006003d00bb
:102600006000b8006011b8000404500085845800d0
:102610000605590087855900e80f5700040032006d
:1026200040002000f00f570038003a00010037004a
:1026300030002000e00f5400e08f5c00e00f5d00f0
:10264000e08f5d0004003a00dc0890008d0120005e
:102650000100e000060032008e00e9008880600082
:102660008fba9700e5c07800f1ef9f007d01200050
:10267000800078008100e900050033008b05d1005f
:102680000a85d3008984d3000884d300f9ff37007a
:10269000089ebe000a96be00120037008d06e900b3
:1026a0008e00e900848060000fb99700e2c17800d5
:1026b00082fd2f000f01410003f17e0080007800b1
:1026c0008100e900050033008783d1000683d30031
:1026d0008582d3000482d300f9ff3700049ebe0038
:1026e0000696be003c02be002c03be00e00f520066
:1026f000e08f5a00e00f5b00e08f5b008b0034003e
:102700000d00e000e5ff3c00880037002c609000e1
:1027100081c6b300814f50000b00320006003c0020
:102720000004e00008003200e6c05000814f500075
:102730004e003a0004003700c1c6b300814f50007c
:102740004a003a00210037000800e00004003a0087
:102750005c0890008d0120000000e00006003200bf
:10276000110009000e84d8000fb99700e2c078006c
:10277000f1ef9f007d012000110009000e84d800b8
:102780000a003700110009000e04d8008d06e90088
:102790000e81b900020454008fb8970061417c009b
:1027a00081fd2f008f80400082f07e0000047800c1
:1027b0000800e000020032000d00e000f1ff3c00e4
:1027c000cfc4de00614db90025003700e00f540092
:1027d000e08f5c0004003a005c0890008d0120004e
:1027e0000000e000070032006171b9000800be007f
:1027f000690107008fb99700e3417800f3ef9f006c
:102800007d0120006171b9000800be00520107007f
:102810000b0037006171b9000800be003f010700de
:102820008d06e90000f1b900020454000fba9700c8
:10283000e4427c0084fd2f000f02420005f27e007e
:102840000004be00e00f5000e08f5800020032008c
:102850000d00e000efff3c004fcdde008a05780060
:10286000089ebe000a96be0030003700e00f5400fc
:10287000e08f5c00e00f5d00e08f5d0004003a0037
:102880005c0890008d0120000000e000090032008b
:102890006172b900612bb9000800be000a01be00d8
:1028a000e60107000fba970064427800f4ef9f003a
:1028b0007d0120006172b900612bb9000800be00e3
:1028c0000a01be00d60107000d0037006172b90091
:1028d000612bb9000800be000a01be00db01070041
:1028e0008d06e90000f2b900040454008fba970085
:1028f00065427c0085fd2f008f82420084f27e00bd
:10290000009ebe000296be003c04be002c05be0028
:10291000e00f5400e08f5c00e00f5d00e08f5d0091
:10292000020034000d00e000e8ff3c00e80f570013
:1029300010003a000c1090000038a3000d00320087
:10294000f78f560006003e0085fd2f008f82420063
:10295000e5c07e0000c3b30080cf50000500320008
:102960008d06e90002c3b30081fd2f008f80400077
:1029700082f07e0078811600120e98006c009000a4
:1029800083fd2f008f8141008d8041002dfb0700ca
:102990001c089000dc089000810f500006003d00ec
:1029a00000805000000e98000c1090000040a10024
:1029b000001698000f0037000100e0000d003d00f8
:1029c0008c109000f4806000f08f500009003a00f5
:1029d0007c099000fc009000810051000c099000df
:1029e00082805000008050004240a9000100340065
:1029f000000e98004f0778004f06be004f05be003e
:102a00004f04be00cf01b100000006000400fa0030
:102a1000889fbe008a9fbe008c1f7800000478004b
:102a200001067800f80d9000780090008085550030
:102a30000808900080855500180890008085550092
:102a40002808900080855500380890008085550042
:102a500048089000808555000002220090bf9f002a
:102a600000032300a0bf9f00081090000028a300cf
:102a700015003a000b00e000130034000b0578004d
:102a80008a047800e20f550001003600290020007a
:102a9000c801900009017800ee80570058009000ae
:102aa00003000100500498000000e0008c00320098
:102ab0006808900009004000600c98000905550066
:102ac0004240a900eeff3c00780190000200e000c7
:102ad0000c003400c80190008c0078005800900071
:102ae00003000100500498008080eb000000e0002b
:102af0007c003200e80890007800900000804000e0
:102b0000600c9800880c90000900e000110034006f
:102b100009057800e28f5400010036002a002000e9
:102b2000c80190000a017800ec805700580090001e
:102b300003000100500498000000e000680032002b
:102b4000680890000a004000600c98008a845400d5
:102b5000edff3700180990000200e0000c0034007f
:102b6000c8019000e80090005800900003000100a8
:102b7000500498008080eb000000e0005900320013
:102b8000e80890001808900000804000600c980051
:102b9000a80c90000900e00011003400090578003d
:102ba000e28f5400010036002a002000c801900086
:102bb0000a017800ec8057005800900003000100e3
:102bc000500498000000e0004500320068089000c2
:102bd0000a004000600c98008a845400edff370022
:102be000380990000200e0000e003400e800900078
:102bf0001808900080804000c801900058009000a4
:102c000003000100500498008080eb000000e00009
:102c100034003200e808900038089000008040003e
:102c2000600c9800c80c90000900e000110034000e
:102c300009057800e28f5400010036002a002000c8
:102c4000c80190000a017800ec80570058009000fd
:102c500003000100500498000000e0002000320052
:102c6000680890000a004000600c98008a845400b4
:102c7000edff3700081090008000eb000028a30053
:102c8000180032000b00e000160034008b047800be
:102c900009057800e28f5400010036002a00200068
:102ca000c80190000a017800ee805700580090009b
:102cb00003000100500498000000e000080032000a
:102cc000680890000a004000600c98008a84540054
:102cd0004240a900eeff3c008000eb0001003700fd
:102ce0008080eb00010078004f0678004f05be00a1
:102cf0004f04be000080fa000000060001087800c2
:102d00000000060000c0da000000060000c0da0083
:102d10000000060000c0da0000000600839f680083
:102d20000100e00002003d0060001000e08018009b
:102d30000300e00002003d0060011100e081190085
:102d4000050007004f00e00002003b00600010009b
:102d5000e0801800000006006022b8000602200093
:102d60000000d0008180d2000482d2008582d2008f
:102d70000000a0000202520083825a0003003100ca
:102d80000202420083824a000000a1000603e9001b
:102d9000f3ff3a0000000600efff07000400be004a
:102da00000000600020ab900001bb9000200b800ca
:102db000810042008100430000000600889fbe00a1
:102dc0008a9fbe0030044200b0844a0030054b00a8
:102dd00090854b006000b1000898be000a90be00cc
:102de0000440e10005c8e10006d0e10007d8e10099
:102df00002003100680040001008e8004f05be00e6
:102e00004f04be0000000600889fbe008a9fbe00df
:102e10003004be002005be000418540005985c0074
:102e200006185d0007985d00110020000440e100d5
:102e300005c8e10006d0e10007d8e1000100390033
:102e40008000eb00108810004f05be004f04be004c
:102e5000000006001200fa00889fbe008a9fbe0094
:102e60008c9fbe00e0b79f00f1b79f0082bf9f001c
:102e700093bf9f000605be000404be000000eb00e7
:102e8000d0b79f00c0b79f00b0b79f00a0b79f000a
:102e900090b79f000006eb005fb19700cfb097009e
:102ea000820141003fb097000200e00004003d00b5
:102eb000370007007e805700c0ff0700030037007f
:102ec000330007007e805700cfff0700dfb6970072
:102ed0000d00e0000c0035006fb29700ffb29700c4
:102ee0000fbb97009fbb970010002000010020003f
:102ef0006011b80000027200818272000203730048
:102f0000838373001b0007000c06e8000104200007
:102f1000810f5600e0ff3a000d00e00004003d0084
:102f20000802be000a03be007e805700a3ff070010
:102f30005fa897000000e00005003a001fb297006c
:102f4000afb297003fb39700cfb3970009000700d7
:102f50006fb09700ffb097000fb997009fb9970027
:102f60004f06be004f05be004f04be000080fa00b1
:102f7000000006000100070000000600a4b79f0043
:102f8000b5b79f00c6b79f00d7b79f0000000600e7
:102f90004f09de0082817100b3b79f004f01de0050
:102fa0008180400082807000a1b79f008fb09700a1
:102fb0004f09de00000040000200700090b79f0043
:102fc0007fa897004f01de00818040008280700062
:102fd00081b79f000d0007004f3ade00000040005f
:102fe00004007000f0af9f000800070004024200d8
:102ff00085824a0006034b0087834b00dfff0700f2
:103000000802be000a03be00000006002fb29700af
:10301000bfb297004fb39700dfb3970000000600e0
:10302000881f780018002000881f780089ff07009b
:103030008f87e9004f04780000000600801feb0036
:1030400084ff07008f87e90000000600889fbe000c
:103050008a9fbe00e00f5000e08f5800e00f59003b
:10306000e08f59000c003d006044b8006055b80086
:103070000000540081805c0002015d0083815d00de
:10308000180020001500070008003d001800070088
:103090000004eb00050037000004eb000f00070000
:1030a00002003d001200070018002000dcff0700ae
:1030b0000800e000060032006022b8006033b8006b
:1030c0000000520081805a0002015b0083815b0096
:1030d0004f05be004f04be0000000600e00f520086
:1030e000e08f5a00e00f5b00e08f5b0000000600fd
:1030f0006044b8006055b8000402540085825c004a
:1031000006035d0087835d0000000600889fbe0007
:103110008a9fbe008c1f7800e00f5000e08f58009f
:10312000e00f5900e08f59000d003d006044b800e9
:103130006055b8000000540081805c0002015d0011
:1031400083815d001c0020000820e10009a8e10047
:103150000ab0e1000bb8e1000d003d0008003700a7
:103160000006eb00e00f5200e08f5a00e00f5b001a
:10317000e08f5b0006003d006044b8006055b80079
:103180000402540085825c0006035d0087835d00b5
:10319000aaff07000c00e000060032006022b80021
:1031a0006033b8000000520081805a0002015b00c9
:1031b00083815b004f0678004f05be004f04be00c0
:0431c0000000060005
:020000040000fa
:1031c400546f000073680000696200006100000031
:1031d400536100006d730000756e0000670000000d
:1031e400467500006a6900007473000075000000f1
:1031f4004e610000746900006f6e0000616c000095
:1032040000520000656e00006573000061730000e9
:1032140000530000542000004d6900006372000058
:103224006f000000487900006e690000780000001b
:103234004d690000637200006f6e000000410000e1
:103244004d440000005500006e6b00006e6f0000de
:10325400776e00000000000098000000e298000073
:10326400ec000000ea98000004000000f29800005e
:103274008f000000fa980000070000000399000086
:10328400200000000b990000ad000000149900001c
:103294002c0000001a990000010000002199000090
:1032a40000000000259900004e4100004e4400003b
:1032b40020360000344d0000694200002033000035
:1032c4002c33000076200000382d000062690000d5
:1032d4007420000061640000646500006420000044
:1032e4006279000020530000524c000000000000ee
:1032f40056990000200000000002000000000000b9
:103304004000000000000000004000000000000039
:10331400000000000000000073650000636f0000ff
:103324006e64000020490000442000007265000023
:10333400616400002064000069640000206e0000e5
:103344006f740000206d0000617400006368000069
:103354002025000030320000782c000025300000c9
:10336400327800002061000067610000696e00008f
:10337400737400002025000030320000782c000017
:1033840025300000327800000a000000596f000068
:103394007572000020640000657600006963000017
:1033a40065200000494400003a200000202000006d
:1033b4002530000032580000202500003032000083
:1033c400582000002530000032580000202500005d
:1033d4003032000058200000253000003258000030
:1033e400200a0000000a000045780000746500000f
:1033f4006e640000656400002064000065740000d1
:10340400616900006c73000000250000733a00003d
:1034140020250000730a00000a0000002045000077
:1034240078740000696400002028000034740000ef
:1034340068620000797400006520000025300000f7
:1034440032580000293a00000a0000002020000041
:103454005061000067650000736900007a65000030
:10346400202500006c7500002062000079740000c3
:1034740065730000202b0000204f00004242000032
:1034840020250000750a00000020000020420000f2
:103494006c6f0000636b0000736900007a650000c4
:1034a400202500006c750000206200007974000083
:1034b4006573000020280000257500004b420000c1
:1034c400290a00000020000020420000757300005b
:1034d400776900006474000068200000257500000e
:1034e4002062000069740000730a000000200000dc
:1034f400205000006167000065730000697a0000d5
:1035040065200000256c0000752000006279000031
:1035140074650000730a0000003000007825000084
:1035240030320000780a000000250000640000002a
:020000040000fa
:103534000000fa009aa4a9009a84a8000080fa0066
:10354400000006000400fa00000f7800110798003c
:103554009e009000d12488009e007800d124880029
:103564000080fa00000006000000fa0000000000dd
:10357400d0248000610060000000e000fcff3a00fd
:10358400d0248000620060000000e000f8ff3a00f0
:10359400d0248000640060000000e000f4ff3a00e2
:1035a400d0248000680060000000e000f0ff3a00d2
:1035b400d0248000700060000000e000ecff3a00be
:1035c400f124800000002400008060000000e0007e
:1035d400e7ff3a000080fa00000006000000fa004d
:1035e4009a04a8000080fa00000006000000fa0017
:1035f4009be4a9009a00a9009a20a9008a00a900c6
:103604008a20a9000080fa00000006000200fa00e7
:10361400000f78008a00a9008a20a9001e00780003
:1036240000407800674060006740600067406000c9
:103634000080fb00670060008205800081ff2f008e
:1036440081006100010070008005880000072000ef
:103654001e0060004400de00004078006740600007
:103664000080fb00670060004400dd0082058000ec
:10367400f1f82f00810061000100700080058800ce
:103684009e007800688060004300de0000407800ff
:10369400614060000080fb0061006000d204800093
:1036a400e1ff2f008100610001007000d004880058
:1036b400000820001e0060004700de000040780083
:1036c400614060000080fb00610060000000400079
:1036d400d2048000d1ff2f0081006100010070003e
:1036e400d00488000080fa00000006000000fa0000
:1036f400f02480000000d100614060000080fa00e6
:10370400000006000600fa001007980041479800e0
:10371400240037001e009000104078000080fb0059
:10372400000f78001e0090000000e80010079800c9
:1037340000000000d0248000680060000000e00069
:10374400fcff3a0090048000700060000000e0007c
:10375400020032000080eb001d003700d0248000fe
:103764006f006000e80f500004003200d024800095
:103774006f006000eb0f50000a003a004e409000ca
:103784000004e000070032009aa4a9009a84a8006b
:1037940000000000d0248000700060000000e00001
:1037a400fcff3a004e4090000080fb000000ea005d
:1037b4004f00de0000407800ce4090008140e900d8
:1037c400414798000004e000d2ff3a000000eb00fb
:1037d4000080fa00000006000200fa00004f7800a2
:1037e4001e80fb00b0248800f12480000008200023
:1037f400008060000000e0000200320000c0eb0026
:10380400010037000040eb000080fa0000000600d1
:103814000800fa0010079800210798003207980062
:103824000000eb00000f7800260037009a64a8001f
:10383400080037009e0078003e009000808f500002
:10384400020031001e0fe800020037001e00900045
:1038540020003700a5ff07000004e000f5ff320058
:103864000000eb00000f7800a02480008040780066
:103874002e009000014878002e0090000000e8001f
:10388400200798001e0090000000e900100798002f
:103894001e0090000000e00003003a009aa4a80073
:1038a4009a84a800030037009aa4a9009a84a80067
:1038b40000000000d0248000700060000000e000e0
:1038c400fcff3a001e0090000000e000d7ff3a0021
:1038d4000000eb000080fa00000006000200fa007d
:1038e400000f78000700370000000000f02480007b
:1038f400610060000000e000fcff3a001aff0700ce
:103904001e0fe8001e007800104078000004e0005c
:10391400f5ff3a000040eb000080fa0000000600ca
:103924000000fa009a44a8000080fa000000060093
:103934000000fa009a64a80000000000d02480006f
:10394400680060000000e000fcff3a009ec4a9008b
:10395400a0248000004078000080fa0000000600e7
:103964000000fa00000000005004800062006000c3
:103974000000e000fcff32008a20a9000080fa0069
:10398400000006000000fa009aa4a8009a84a80087
:103994000080fa00000006000000fa009a24a80043
:1039a4000080fa00000006000000fa00aaa4a900a2
:1039b400aa84a8000080fa00000006000400fa00af
:1039c400000f7800110798009e0090005125880090
:1039d4009e007800512588000080fa00000006004f
:1039e4000000fa0000000000502580006100600023
:1039f4000000e000fcff3a005025800062006000f7
:103a04000000e000f8ff3a005025800064006000e8
:103a14000000e000f4ff3a005025800068006000d8
:103a24000000e000f0ff3a005025800070006000c4
:103a34000000e000ecff3a00712580000000240043
:103a4400008060000000e000e7ff3a000080fa0018
:103a5400000006000000fa00aa04a8000080fa0092
:103a6400000006000000fa00abe4a9009e20a900b3
:103a74009e40a9008e20a9008e40a9000080fa0073
:103a8400000006000200fa00000f78008e20a90052
:103a94008e40a9001e007800004078006740600056
:103aa40067406000674060000080fb0067006000c2
:103ab4004400dd0002068000f1f82f00810061005f
:103ac4000100700000068800000720001e0060004e
:103ad4004400de0000407800674060000080fb0086
:103ae400670060004800dd0002068000f18f2f00af
:103af4008100610001007000000688009e007800cb
:103b0400688060004300de0000407800614060008f
:103b14000080fb006100600000004000f2048000af
:103b2400d1ff2f008100610001007000f0048800c3
:103b3400000820001e0060004700de0000407800fe
:103b4400614060000080fb00610060004200dd0015
:103b5400f2048000b1ff2f008100610001007000b9
:103b6400f00488000080fa00000006000000fa005b
:103b7400702580000000d100614060000080fa00e0
:103b8400000006000600fa0010079800414798005c
:103b9400250037001e009000104078000080fb00d4
:103ba400000f78001e0090000000e8001007980045
:103bb4000000000050258000680060000000e00064
:103bc400fcff3a00910480000002200000806000a5
:103bd4000000e000020032000080eb001d0037000e
:103be400502580006f006000e80f50000400320090
:103bf400502580006f006000eb0f50000a003a006f
:103c04004e4090000004e00007003200aaa4a9007e
:103c1400aa84a80000000000502580007000600005
:103c24000000e000fcff3a004e4090000080fb00e2
:103c34000000ea004f00de0000407800ce40900013
:103c44008140e900414798000004e000d1ff3a00b8
:103c54000000eb000080fa00000006000200fa00f9
:103c6400004f78001e80fb003025880071258000fd
:103c740000082000008060000000e0000200320024
:103c840000c0eb00010037000040eb000080fa00a8
:103c9400000006000800fa001007980021079800a9
:103ca400320798000000eb00000f78002600370070
:103cb400aa64a800080037009e0078003e00900027
:103cc400808f5000020031001e0fe8000200370010
:103cd4001e00900020003700a4ff07000004e0004d
:103ce400f5ff32000000eb00000f78002025800073
:103cf400804078002e009000014878002e0090004b
:103d04000000e800200798001e0090000000e90071
:103d1400100798001e0090000000e00003003a0025
:103d2400aaa4a800aa84a80003003700aaa4a90092
:103d3400aa84a800000000005025800070006000e4
:103d44000000e000fcff3a001e0090000000e000cc
:103d5400d7ff3a000000eb000080fa0000000600e4
:103d64000200fa00000f780007003700000000008e
:103d740070258000610060000000e000fcff3a0054
:103d840017ff07001e0fe8001e007800104078009f
:103d94000004e000f5ff3a000040eb000080fa0068
:103da400000006000000fa00aa44a8000080fa00ff
:103db400000006000000fa00aa64a8000000000049
:103dc40050258000680060000000e000fcff3a001d
:103dd400aec4a90020258000004078000080fa00cd
:103de400000006000000fa000000000070048000db
:103df400640060000000e000fcff32008e40a90077
:103e04000080fa00000006000000fa00aaa4a8003e
:103e1400aa84a8000080fa00000006000000fa004e
:103e2400aa24a8000080fa00000006000000fa009e
:103e3400baa4a900ba84a8000080fa000000060011
:103e44000400fa00000f7800110798009e0090000b
:103e5400d12588009e007800d12588000080fa00d2
:103e6400000006000000fa0000000000d0258000d9
:103e7400610060000000e000fcff3a00d0258000f3
:103e8400620060000000e000f8ff3a00d0258000e6
:103e9400640060000000e000f4ff3a00d0258000d8
:103ea400680060000000e000f0ff3a00d0258000c8
:103eb400700060000000e000ecff3a00f125800093
:103ec40000002400008060000000e000e7ff3a00ea
:103ed4000080fa00000006000000fa00ba04a800fe
:103ee4000080fa00000006000000fa00bbe4a9000c
:103ef400a0c0a900a0e0a90090c0a90090e0a9007a
:103f04000080fa00000006000200fa00000f7800aa
:103f140090c0a90090e0a9001e007800004078003d
:103f24006740600067406000674060000080fb00fd
:103f3400670060004800dd0052068000f18f2f000a
:103f44008100610001007000500688000007200015
:103f54001e0060004400de000040780067406000fe
:103f64000080fb00670060004c00dd00520680000a
:103f7400f1ff2800810061000100700050068800f4
:103f84009e007800688060004300de0000407800f6
:103f9400614060000080fb00610060004600dd00bd
:103fa40002058000f1fb2f00810061000100700018
:103fb40000058800000820001e0060004700de00a5
:103fc40000407800614060000080fb0061006000f8
:103fd4004700dd0002058000f1f72f008100610039
:103fe40001007000000588000080fa00000006004f
:103ff4000000fa00f02580000000d100614060005c
:104004000080fa00000006000600fa00100798007d
:1040140041479800250037001e00900010407800aa
:104024000080fb00000f78001e0090000000e800f4
:104034001007980000000000d02580006800600090
:104044000000e000fcff3a00a10480000000220010
:10405400008060000000e000020032000080eb00fd
:104064001d003700d02580006f006000e80f50006d
:1040740004003200d02580006f006000eb0f500078
:104084000a003a004e4090000004e00007003200ad
:10409400baa4a900ba84a80000000000d0258000ba
:1040a400700060000000e000fcff3a004e40900009
:1040b4000080fb000000ea004f00de0000407800b2
:1040c400ce4090008140e900414798000004e000a0
:1040d400d1ff3a000000eb000080fa000000060067
:1040e4000200fa00004f78001e80fb00b025880013
:1040f400f125800000082000008060000000e0003e
:104104000200320000c0eb00010037000040eb0069
:104114000080fa00000006000800fa00100798006a
:1041240021079800320798000000eb00000f780088
:1041340026003700ba64a800080037009e00780003
:104144003e009000808f5000020031001e0fe800f6
:10415400020037001e00900020003700a4ff070073
:104164000004e000f5ff32000000eb00000f7800cf
:10417400a0258000804078002e009000014878003f
:104184002e0090000000e800200798001e00900018
:104194000000e900100798001e0090000000e000f5
:1041a40003003a00baa4a800ba84a80003003700a8
:1041b400baa4a900ba84a80000000000d025800099
:1041c400700060000000e000fcff3a001e00900058
:1041d4000000e000d7ff3a000000eb000080fa0086
:1041e400000006000200fa00000f78000700370004
:1041f40000000000f0258000610060000000e00085
:10420400fcff3a0017ff07001e0fe8001e007800ad
:10421400104078000004e000f5ff3a000040eb0095
:104224000080fa00000006000000fa00ba44a8006a
:104234000080fa00000006000000fa00ba64a8003a
:1042440000000000d0258000680060000000e0004d
:10425400fcff3a00bec4a900a025800000407800fd
:104264000080fa00000006000000fa0000000000d0
:104274008104800000082000008060000000e0004d
:10428400fbff320090e0a9000080fa000000060065
:104294000000fa00baa4a800ba84a8000080fa00ba
:1042a400000006000000fa00ba24a8000080fa000a
:1042b400000006000400fa001007980070002000b7
:1042c400000f78000d0037009e0090001e0078005b
:1042d4000088de0061006000004078000004e00017
:1042e40003003200100320001ff40700020037000f
:1042f400000320001cf407001e0fe9001e007800d4
:104304000000e000f0ff3d000080fa00000006001d
:104314000200fa00f00f200090358800a286a90060
:10432400a2a6a800a0358000004f7800a2a6a9008c
:104334001e4078000080fa00000006000200fa0027
:10434400004f7800b226ef00a2a6a900a286a8001a
:104354001e80fb00b0358800a286a9000080fa0008
:10436400000006000800fa00889fbe008a9fbe0075
:10437400004f78001107980022079800330798002f
:10438400a2c6a9001e407800ecff0700a2c6a80040
:104394001e009000e10f400021003200a2e6a900b7
:1043a4001e00900000407800e4ff07001e0090000b
:1043b4004800de0000407800e0ff07002e01900076
:1043c400be0190000080eb008080eb00800f510064
:1043d400818f5900110032002e00900000407800b7
:1043e400d6ff07002e009000be0090004809dd00b3
:1043f4004805de000a057100c88dde000a40780019
:10440400ceff07002e009000be009000408cde001e
:10441400cf8cde0008407800c8ff0700a2e6a800a1
:104424004f05be004f04be000080fa0000000600e5
:104434000000fa00ca26a80020ff2800010020007e
:104444009e020700b226ef00a2e6a800a2a6a900d9
:10445400ca26a800a286a800a2c6a90000c0eb0034
:10446400b6ff0700a2c6a80040d42100c101200065
:10447400920207000080fa00000006000600fa001d
:10448400a0972900000f7800e092290010079800f7
:1044940020ff28000100200088020700ca26a80087
:1044a4000081eb008081eb008080eb0000c9b30049
:1044b400acff0700a2e6a9000040eb009fff070045
:1044c400a2e6a80092ff070000e8b70090ff0700eb
:1044d40001e8b7000081eb008081eb008080eb00f5
:1044e40000c9b3009fff0700a2e6a9000040eb004b
:1044f40092ff0700a2e6a80085ff07004047980046
:1045040083ff07005047980000c8bf00ce409000ca
:1045140080cf500004003a0001c8bf00de40900084
:1045240080cf5000120032005e4090008081fb007a
:104534004e4090000081fb0001c8bf008080fb005a
:1045440000c8bf000080fb00831f7800821f780032
:10455400811f7800801f7800e0982900801f780070
:1045640012f50700ea875700ca26a900d9003700c8
:1045740067ff070002e8b70065ff070003e8b7001c
:1045840063ff070004e8b70004c8bf000082fb0013
:1045940003c8bf008081fb0002c8bf000081fb008c
:1045a40001c8bf008080fb0000c8bf000080fb0082
:1045b400841f7800831f7800821f7800811f780091
:1045c400801f7800809c2900801f7800f7f4070082
:1045d400ec8757000a00370000c8bf008080fb004a
:1045e4001e00780010009000808f500002003a00f6
:1045f40000000000100037009e007800748f400017
:104604001e007800100078000000e000f2ff3a007d
:104614000900370000c8bf008080fb001e00900026
:1046240010007800808f5000080032001e009000b7
:1046340064004000100798001e00900010007800ed
:104644000000e000f3ff3a00010037000000000022
:10465400509f290046f307001e0078009000780060
:104664001e00900010009000811f7800801f7800c9
:1046740070a02900801f7800ccf40700e68757005b
:1046840003c8bf000080fb000aff070003c8bf0087
:104694000080fb00801f780000a12900801f7800a3
:1046a400c2f40700e48757001e007800b0009000b1
:1046b40020009000e00f5000e08f58005d003a00a9
:1046c40003c8bf000080fb006300600001402000bd
:1046d4000008dd00cf80de003040880041408800c3
:1046e40003c8bf000080fb004200de0000407800e9
:1046f40003e8b70003c8bf000080fb00610060004e
:10470400810020000008dd00cf80de000001780079
:104714003040800041408000c709dd004900de00d0
:1047240000807100c908de00000078000090b90024
:10473400000078007040880003c8bf000080fb00c0
:104744004200de000040780003e8b70003c8bf0061
:104754000080fb00630160000000200011002000c5
:10476400020278000402e900030033000000400064
:1047740081804800fbff370050408800614088007a
:1047840003c8bf000080fb004200de000040780048
:1047940003e8b70003c8bf000080fb0061006000ad
:1047a400004078000004e000020032000001200014
:1047b40001003700800020008040880072408000a3
:1047c4003040800041408000821f7800809fbe00fe
:1047d40080a22900801f780074f40700e88757003e
:1047e4005040800061408000ca09de00460add00b6
:1047f4004a01de00020172005040800061408000e6
:10480400829fbe00809fbe0070a42900801f780094
:1048140066f40700ea87570080408000801f780014
:1048240050a62900801f780060f40700e487570031
:10483400270037001e007800f00090006000900010
:1048440050408800614088001e007800b00090004d
:104854002000900030408800414088008000200003
:10486400804088003040800041408000809fbe002e
:1048740090a72900801f78004cf40700e6875700b2
:104884005040800061408000ca09de00460add0015
:104894004a01de0002017200504080006140800045
:1048a400829fbe00809fbe0070a42900801f7800f4
:1048b4003ef40700ea87570080408000801f78009c
:1048c40050a62900801f780038f40700e4875700b9
:1048d400ca26a9000080fa00000006000a00fa00b7
:1048e400b226ef00ca26a80020ff280001002000fd
:1048f40072010700a2c6a90000c7b3008ffe07001b
:10490400a2c6a800f00f20009035880080fe0700a2
:104914000080fb00000f78001e007800801f7800e4
:10492400f0a82900801f780020f40700e4875700ce
:104934001e0078005ffe0700ca26a9000080fa0066
:10494400000006000a00fa000007200059fe0700d4
:10495400b226ef00ca26a80020ff2800010020008c
:1049640056010700a2c6a90000c7b30073fe0700e2
:10497400a2c6a800f00f20009035880064fe07004e
:104984000080fb00000f78001e007800801f780074
:10499400f0a82900801f780004f40700e48757007a
:1049a4001e00780043fe0700ca26a9000080fa0012
:1049b400000006000600fa00008fbe0022079800df
:1049c4002e009000004078005cfe07002e0090004e
:1049d4004800de00004078006f40600057fe07008a
:1049e4001e0078000040780054fe07001e00be0040
:1049f4004809dd004800de0000007100c808de0040
:104a0400004078004dfe07000080fa000000060018
:104a14004c08fa004484200004024700008abe00c7
:104a2400808420000000470002087800a084200051
:104a340000004700030878000000eb00000f780036
:104a44006009200010079800ca26a80050e620003c
:104a540001002000190107004084200000004700e5
:104a64001000be0082842000020147001202780078
:104a74000001be00840078000040eb0039fe07000e
:104a84000081eb008081eb008080eb0000c3b30069
:104a940034fe07000300370050e620000100200028
:104aa4000601070040368000610060000000e0005d
:104ab4000b0032001e00900000f0a7000000ea0086
:104ac4000000ea004f00de00004078009e009000e5
:104ad4008100e900110798000004e000eeff3a00ad
:104ae400d07d260011002000f40007000000eb0038
:104af400000f78000500370005fe0700e4004700ba
:104b04009e804000804878001e0fe800a0842000aa
:104b1400000047009e007800908f5000f6ff390097
:104b24000000eb00000f78000a0037006400470023
:104b34001e004000104078000080fb00801f7800b9
:104b440070a92900801f780098f30700e4875700b4
:104b54001e0fe800a0842000000047009e0078009b
:104b6400908f5000f1ff3900ca26a9000080fa0096
:104b7400000006000600fa00008fbe00220798001d
:104b8400038420002e0190001e00be00a0ff070039
:104b94000080fa00000006000400fa00008fbe0046
:104ba400038420000001eb001e00be0098ff0700f4
:084bb4000080fa000000060079
:020000040000fa
:104bbc000008000012000000800000001208000035
:104bcc00880000008200000001000000003808008e
:104bdc003908380008380800380838000828080058
:104bec0000000000000000000000000000000000b9
:104bfc00000000000000000000000000000208009f
:104c0c00010160000861080060086000086008008d
:104c1c0060085000080000000000000000000000c8
:104c2c000000000000000000000000000000000078
:104c3c0000000200080202008808890008880800a9
:104c4c008808880008880800780800000000000028
:104c5c000000000000000000000000000000000048
:104c6c00000000000000000012083a000862080072
:104c7c000000000000000000000000000000000028
:104c8c00da0800000200000080000000bc080000f0
:104c9c001a00000082000000686a6c00747a4c00f4
:104cac0000000100000200000400080000100000d9
:104cbc00000020002b2d230030000000dc08000039
:104ccc00020000008200000004000000d608000072
:104cdc0004000000800000009a0800002200000080
:104cec008200000030313200333435003637380062
:104cfc003941420043444500460030003132330014
:104d0c0034353600373839006162630064656600fb
:104d1c0000000000de08000002000000820000001d
:104d2c0001000000e008000002000000800000000c
:044d3c000000000073
:020000040000fa
:104d40000400fa0001088000110798001108800093
:104d5000000c2000010070001008880002a1a800cb
:104d60000000eb00000f7800010037001e0fe80084
:104d7000702520009e007800808f5000fbff3600d9
:104d800001088000f08f2f00008060000080a000ec
:104d9000000888000001a8000e80e8000000e8007c
:104da000104078000081fb0080072000a10920004e
:104db00013102000804978008149780082497800ea
:104dc0000e80e800104078000081fb0060042000a5
:104dd0007105200003102000804978008149780087
:104de00082497800000000000108800000022000d5
:104df000008060000000e000fbff3200000880003f
:104e0000000880000000eb000080fa0000000600af
:104e10000400fa002047980001088000010f780084
:104e20002e409000674060000080fb00670060003b
:104e30004800dd0002088000f18f2f008100610032
:104e400001007000000888000001a8000e00e800c2
:104e5000104078000081fb0080072000a10920009d
:104e60001310200080497800814978008249780039
:104e70000e007800104078000081fb0060042000e4
:104e800071052000031020008049780081497800d6
:104e90008249780000000000010880000002200024
:104ea000008060000000e000fbff3200000880008e
:104eb000000880000000eb000080fa0000000600ff
:020000040000fa
:104ec000f03fb1000180b10006003500ee0309009b
:104ed00000000000403fb1000180b100fbff3d0039
:104ee0001000b000203fb000020035000080090033
:084ef0000000000000000600b4
:020000040000fa
:104ef8000000fa008e26ef000000eb000080fa00a8
:044f0800000006009f
:020000040000fa
:020000040005f5
:045e0000ffff0000a0
:020000040000fa
:020000040005f5
:045e2000ff1f000060
:020000040000fa
:020000040005f5
:045e300089ffff00e7
:020000040000fa
:020000040005f5
:045e38004bffff001d
:020000040000fa
:020000040005f5
:045e40009fffff00c1
:020000040000fa
:020000040005f5
:045e4800ffffff0059
:020000040000fa
:020000040005f5
:045e5000dfffff0071
:020000040000fa
:020000040005f5
:045e5800ffffff0049
:00000001FF
